:020000040800F2
:100000000000082469310008052B0008072B0008B0
:10001000092B00080B2B00080D2B00080000000026
:100020000000000000000000000000000F2B00088E
:10003000112B000800000000132B0008152B0008EE
:10004000B9310008B9310008B9310008B9310008E8
:10005000B9310008B9310008B9310008B9310008D8
:10006000B9310008B9310008B9310008B9310008C8
:10007000B9310008B9310008B9310008B9310008B8
:10008000B9310008B9310008B9310008B9310008A8
:10009000B9310008B9310008B9310008B931000898
:1000A000B9310008B9310008B9310008B931000888
:1000B000B9310008B9310008B9310008B931000878
:1000C000B9310008B9310008B9310008B931000868
:1000D000B93100081D2B0008B93100082D2B00088C
:1000E000B9310008B931000800000000B93100083A
:1000F000B9310008B9310008B9310008B931000838
:10010000B9310008B9310008B9310008B931000827
:10011000B93100083D2B0008B9310008B931000899
:10012000B9310008B9310008B9310008B931000807
:10013000B9310008B9310008B9310008B9310008F7
:1001400000000000000000000000000000000000AF
:10015000B9310008B9310008B9310008B9310008D7
:10016000B9310008B9310008B9310008B9310008C7
:10017000B9310008B9310008B9310008B9310008B7
:10018000B9310008B9310008B9310008B9310008A7
:10019000B9310008B9310008B9310008B931000897
:1001A000B9310008B9310008B9310008B931000887
:1001B000B9310008B9310008B9310008B931000877
:1001C000B9310008B9310008B9310008B931000867
:1001D000B9310008B9310008B9310008B931000857
:1001E000B9310008B9310008B9310008B931000847
:1001F000B9310008B9310008B9310008B931000837
:10020000B9310008B9310008B9310008B931000826
:10021000B9310008B9310008B9310008B931000816
:10022000B9310008B9310008B931000800000000F8
:10023000B9310008B931000800000000B9310008E8
:10024000B9310008B9310008B9310008B9310008E6
:10025000B9310008B9310008B9310008B9310008D6
:10026000B9310008B9310008B9310008B9310008C6
:10027000B9310008B9310008B931000800000000A8
:10028000B9310008B9310008B93100080000000098
:0802900000000000B931000874
:1002C00010B5054C237833B9044B13B10448AFF390
:1002D00000800123237010BD0010002400000000E6
:1002E00088C9000808B5034B1BB103490348AFF3A5
:1002F000008008BD000000000410002488C9000828
:1003000081F0004102E000BF83F0004330B54FEAC6
:1003100041044FEA430594EA050F08BF90EA020F33
:100320001FBF54EA000C55EA020C7FEA645C7FEAC6
:10033000655C00F0E2804FEA5454D4EB5555B8BFE9
:100340006D420CDD2C4480EA020281EA030382EA5A
:10035000000083EA010180EA020281EA0303362DEC
:1003600088BF30BD11F0004F4FEA01314FF4801CBF
:100370004CEA113102D0404261EB410113F0004FD1
:100380004FEA03334CEA133302D0524263EB430388
:1003900094EA050F00F0A780A4F10104D5F1200E26
:1003A0000DDB02FA0EFC22FA05F2801841F1000181
:1003B00003FA0EF2801843FA05F359410EE0A5F155
:1003C00020050EF1200E012A03FA0EFC28BF4CF086
:1003D000020C43FA05F3C01851EBE37101F000453C
:1003E00007D54FF0000EDCF1000C7EEB00006EEB49
:1003F0000101B1F5801F1BD3B1F5001F0CD34908D3
:100400005FEA30004FEA3C0C04F101044FEA445229
:1004100012F5800F80F09A80BCF1004F08BF5FEAB0
:10042000500C50F1000041EB045141EA050130BD90
:100430005FEA4C0C404141EB0101013C28BFB1F5A2
:10044000801FE9D291F0000F04BF01460020B1FAED
:1004500081F308BF2033A3F10B03B3F120020CDAC0
:100460000C3208DD02F1140CC2F10C0201FA0CF09E
:1004700021FA02F10CE002F11402D8BFC2F1200C03
:1004800001FA02F120FA0CFCDCBF41EA0C019040B9
:10049000E41AA2BF01EB0451294330BD6FEA040402
:1004A0001F3C1CDA0C340EDC04F11404C4F12002ED
:1004B00020FA04F001FA02F340EA030021FA04F3FF
:1004C00045EA030130BDC4F10C04C4F1200220FA56
:1004D00002F001FA04F340EA0300294630BD21FA94
:1004E00004F0294630BD94F0000F83F4801306BF5A
:1004F00081F480110134013D4EE77FEA645C18BF4E
:100500007FEA655C29D094EA050F08BF90EA020FE4
:1005100005D054EA000C04BF1946104630BD91EADC
:10052000030F1EBF0021002030BD5FEA545C05D1DF
:100530004000494128BF41F0004130BD14F580041E
:100540003CBF01F5801130BD01F0004545F0FE4192
:1005500041F470014FF0000030BD7FEA645C1ABFC7
:10056000194610467FEA655C1CBF0B46024650EAFE
:10057000013406BF52EA033591EA030F41F400212A
:1005800030BD00BF90F0000F04BF0021704730B5B0
:100590004FF4806404F132044FF000054FF0000185
:1005A00050E700BF90F0000F04BF0021704730B546
:1005B0004FF4806404F1320410F0004548BF40421B
:1005C0004FF000013EE700BF42004FEAE2014FEA70
:1005D00031014FEA02701FBF12F07F4393F07F4F4B
:1005E00081F06051704732F07F4208BF704793F04E
:1005F0007F4F04BF41F40021704730B54FF4607461
:1006000001F0004521F000411CE700BF50EA010263
:1006100008BF704730B54FF000050AE050EA01020C
:1006200008BF704730B511F0004502D5404261EB7C
:1006300041014FF4806404F132045FEA915C3FF4BD
:10064000D8AE4FF003025FEADC0C18BF03325FEA5A
:10065000DC0C18BF033202EBDC02C2F1200300FA0B
:1006600003FC20FA02F001FA03FE40EA0E0021FA30
:1006700002F11444BDE600BF70B54FF0FF0C4CF41E
:10068000E06C1CEA11541DBF1CEA135594EA0C0FD0
:1006900095EA0C0F00F0DEF82C4481EA030621EA0B
:1006A0004C5123EA4C5350EA013518BF52EA033546
:1006B00041F4801143F4801338D0A0FB02CE4FF0F8
:1006C0000005E1FB02E506F00042E0FB03E54FF028
:1006D0000006E1FB03569CF0000F18BF4EF0010E20
:1006E000A4F1FF04B6F5007F64F5407404D25FEA1C
:1006F0004E0E6D4146EB060642EAC62141EA5551CF
:100700004FEAC52040EA5E504FEACE2EB4F1FD0C10
:1007100088BFBCF5E06F1ED8BEF1004F08BF5FEA8E
:10072000500E50F1000041EB045170BD06F0004640
:1007300046EA010140EA020081EA0301B4EB5C04ED
:10074000C2BFD4EB0C0541EA045170BD41F48011E5
:100750004FF0000E013C00F3AB8014F1360FDEBF0A
:10076000002001F0004170BDC4F10004203C35DAE6
:100770000C341BDC04F11404C4F1200500FA05F369
:1007800020FA04F001FA05F240EA020001F000420A
:1007900021F0004110EBD37021FA04F642EB060180
:1007A0005EEA430E08BF20EAD37070BDC4F10C04AA
:1007B000C4F1200500FA04F320FA05F001FA04F26E
:1007C00040EA020001F0004110EBD37041F100015A
:1007D0005EEA430E08BF20EAD37070BDC4F1200565
:1007E00000FA05F24EEA020E20FA04F301FA05F2CD
:1007F00043EA020321FA04F001F0004121FA04F275
:1008000020EA020000EBD3705EEA430E08BF20EA44
:10081000D37070BD94F0000F0FD101F0004640007E
:1008200041EB010111F4801F08BF013CF7D041EA00
:10083000060195F0000F18BF704703F00046520004
:1008400043EB030313F4801F08BF013DF7D043EAD5
:100850000603704794EA0C0F0CEA135518BF95EA8B
:100860000C0F0CD050EA410618BF52EA4306D1D112
:1008700081EA030101F000414FF0000070BD50EA31
:10088000410606BF1046194652EA430619D094EABB
:100890000C0F02D150EA013613D195EA0C0F05D1A5
:1008A00052EA03361CBF104619460AD181EA0301F9
:1008B00001F0004141F0FE4141F470014FF00000B1
:1008C00070BD41F0FE4141F4780170BD70B54FF04C
:1008D000FF0C4CF4E06C1CEA11541DBF1CEA1355CC
:1008E00094EA0C0F95EA0C0F00F0A7F8A4EB0504AE
:1008F00081EA030E52EA03354FEA013100F08880A5
:100900004FEA03334FF0805545EA131343EA12636D
:100910004FEA022245EA111545EA10654FEA002622
:100920000EF000419D4208BF964244F1FD0404F5DB
:10093000407402D25B084FEA3202B61A65EB030537
:100940005B084FEA32024FF480104FF4002CB6EBF4
:10095000020E75EB030E22BFB61A754640EA0C0074
:100960005B084FEA3202B6EB020E75EB030E22BFB4
:10097000B61A754640EA5C005B084FEA3202B6EBF5
:10098000020E75EB030E22BFB61A754640EA9C00B4
:100990005B084FEA3202B6EB020E75EB030E22BF84
:1009A000B61A754640EADC0055EA060E18D04FEA42
:1009B000051545EA16754FEA06164FEAC30343EAE2
:1009C00052734FEAC2025FEA1C1CC0D111F4801FAF
:1009D0000BD141EA00014FF000004FF0004CB6E7A8
:1009E00011F4801F04BF01430020B4F1FD0C88BF47
:1009F000BCF5E06F3FF6AFAEB5EB030C04BFB6EB52
:100A0000020C5FEA500C50F1000041EB045170BD44
:100A10000EF0004E4EEA113114EB5C04C2BFD4EB71
:100A20000C0541EA045170BD41F480114FF0000EF5
:100A3000013C90E645EA060E8DE60CEA135594EA71
:100A40000C0F08BF95EA0C0F3FF43BAF94EA0C0F74
:100A50000AD150EA01347FF434AF95EA0C0F7FF4E9
:100A600025AF104619462CE795EA0C0F06D152EA3D
:100A700003353FF4FDAE1046194622E750EA410621
:100A800018BF52EA43067FF4C5AE50EA41047FF432
:100A90000DAF52EA43057FF4EBAE12E74FF0FF3C97
:100AA00006E000BF4FF0010C02E000BF4FF0010C68
:100AB0004DF804CD4FEA410C7FEA6C5C4FEA430CE1
:100AC00018BF7FEA6C5C1BD001B050EA410C0CBF30
:100AD00052EA430C91EA030F02BF90EA020F002092
:100AE000704710F1000F91EA030F58BF994208BFF9
:100AF00090422CBFD8176FEAE37040F001007047B6
:100B00004FEA410C7FEA6C5C02D150EA013C07D10C
:100B10004FEA430C7FEA6C5CD6D152EA033CD3D057
:100B20005DF8040B704700BF8446104662468C4651
:100B30001946634600E000BF01B5FFF7B7FF002884
:100B400048BF10F1000F01BD4DF808EDFFF7F4FFAD
:100B50000CBF012000205DF808FB00BF4DF808ED38
:100B6000FFF7EAFF34BF012000205DF808FB00BF5B
:100B70004DF808EDFFF7E0FF94BF012000205DF87D
:100B800008FB00BF4DF808EDFFF7CEFF94BF012032
:100B900000205DF808FB00BF4DF808EDFFF7C4FF2B
:100BA00034BF012000205DF808FB00BF53B94AB9EB
:100BB000002908BF00281CBF4FF0FF314FF0FF3065
:100BC00000F06EB9ADF1080C6DE904CE00F006F846
:100BD000DDF804E0DDE9022304B070472DE9F047B9
:100BE000089D04468C46002B40F083808A421746BD
:100BF00047D9B2FA82F242B1C2F1200024FA00F0E1
:100C00009140974040EA010C94404FEA1748230C6A
:100C1000BCFBF8F61FFA87FE08FB16C143EA014346
:100C200006FB0EF1994209D9FB1806F1FF3080F05E
:100C30001981994240F21681023E3B445B1AA4B2EC
:100C4000B3FBF8F008FB103344EA034400FB0EFE4C
:100C5000A64509D93C1900F1FF3380F00581A6456E
:100C600040F2028102383C4440EA0640A4EB0E0404
:100C700000261DB1D4400023C5E900433146BDE83C
:100C8000F08702B9FFDEB2FA82F2002A50D1CB1B04
:100C90004FEA174E1FFA87F80126B3FBFEFC210C22
:100CA0000EFB1C3341EA034108FB0CF38B4207D9CE
:100CB00079180CF1FF3002D28B4200F2E9808446B1
:100CC000C91AA3B2B1FBFEF00EFB101143EA0144B6
:100CD00008FB00F8A04507D93C1900F1FF3302D208
:100CE000A04500F2D9801846A4EB080440EA0C4065
:100CF000BFE78B4209D9002D00F0B1800026C5E97D
:100D0000000130463146BDE8F087B3FA83F6002E85
:100D10004AD18B4202D3824200F2B880841A61EB3E
:100D2000030101208C46002DA8D0C5E9004CA5E7A1
:100D3000C2F1200320FA03F6974001FA02F04FEACD
:100D4000174ED9403043030CB1FBFEF61FFA87F86B
:100D50000EFB161143EA014306FB08F1994204FA1F
:100D600002F409D9FB1806F1FF3C80F08D8099420E
:100D700040F28A80023E3B445B1A81B2B3FBFEF034
:100D80000EFB103341EA034100FB08F38B4207D905
:100D9000791800F1FF3C73D28B4271D90238394483
:100DA000CB1A40EA064678E7C6F1200C03FA06F4AF
:100DB00022FA0CF31C4320FA0CF701FA06F34FEA6F
:100DC000144E21FA0CF11F433B0CB1FBFEF91FFA44
:100DD00084F80EFB191143EA014109FB08FA8A4520
:100DE00002FA06F200FA06F308D9611809F1FF3099
:100DF00048D28A4546D9A9F102092144A1EB0A014A
:100E0000BFB2B1FBFEF00EFB101147EA014700FB39
:100E100008F8B84507D9E71900F1FF312ED2B845D7
:100E20002CD90238274440EA0940A7EB0807A0FB69
:100E300002894F45C64649461AD317D05DB1B3EB78
:100E40000E0267EB010707FA0CFCF2404CEA0202C3
:100E5000F740C5E9002700263146BDE8F0872E4659
:100E600028460BE70646E9E61846FDE64345E5D287
:100E7000B8EB020E69EB04010138DFE70846D2E760
:100E800060468DE78146B9E7664675E730464AE732
:100E9000ACF1020C394413E702383C4424E700BFAC
:100EA000704700BF000000000000000000000000CC
:100EB0000000000000000000000000000000000032
:100EC00090F800F06DE9024520F007016FF0000C8A
:100ED00010F0070491F820F040F049804FF0000432
:100EE0006FF00700D1E9002391F840F000F108000D
:100EF00082FA4CF2A4FA8CF283FA4CF3A2FA8CF345
:100F00004BBBD1E9022382FA4CF200F10800A4FAAB
:100F10008CF283FA4CF3A2FA8CF3E3B9D1E90423FF
:100F200082FA4CF200F10800A4FA8CF283FA4CF336
:100F3000A2FA8CF37BB9D1E9062301F1200182FAF0
:100F40004CF200F10800A4FA8CF283FA4CF3A2FAF6
:100F50008CF3002BC6D0002A04BF04301A4612BA04
:100F6000B2FA82F2FDE8024500EBD2007047D1E907
:100F7000002304F00305C4F100004FEAC50514F096
:100F8000040F91F840F00CFA05F562EA05021CBF67
:100F900063EA050362464FF00004A9E70000000081
:100FA00001F0FF01102A2BDB10F0070F08D010F81A
:100FB000013B013A8B422DD010F0070F42B3F6D11E
:100FC000F0B441EA012141EA014122F007047FF037
:100FD00000070023F0E80256083C85EA010586EA8E
:100FE000010685FA47F5A3FA87F586FA47F6A5FACA
:100FF00087F68EB9EED1F0BC01F0FF0102F00702D6
:1010000032B110F8013B013A83EA010313B1F8D180
:101010000020704701387047002D06BF3546033861
:10102000073815F0010F07D1013015F4807F02BF9A
:10103000013015F4C03F0130F0BC0138704700BFEB
:10104000844641EA000313F003036DD1403A41D3D3
:1010500051F8043B40F8043B51F8043B40F8043B92
:1010600051F8043B40F8043B51F8043B40F8043B82
:1010700051F8043B40F8043B51F8043B40F8043B72
:1010800051F8043B40F8043B51F8043B40F8043B62
:1010900051F8043B40F8043B51F8043B40F8043B52
:1010A00051F8043B40F8043B51F8043B40F8043B42
:1010B00051F8043B40F8043B51F8043B40F8043B32
:1010C00051F8043B40F8043B51F8043B40F8043B22
:1010D000403ABDD2303211D351F8043B40F8043BC2
:1010E00051F8043B40F8043B51F8043B40F8043B02
:1010F00051F8043B40F8043B103AEDD20C3205D3D2
:1011000051F8043B40F8043B043AF9D2043208D0C9
:10111000D2071CBF11F8013B00F8013B01D30B883B
:1011200003806046704700BF082A13D38B078DD019
:1011300010F003038AD0C3F10403D21ADB071CBFEB
:1011400011F8013B00F8013B80D331F8023B20F855
:10115000023B7BE7043AD9D3013A11F8013B00F88E
:10116000013BF9D20B7803704B7843708B78837016
:10117000604670474FEA410C7FEA6C5C02D150EA4E
:10118000013C0AD14FEA430C7FEA6C5C02D152EA7F
:10119000033C02D14FF0000070474FF00100704750
:1011A0004FEA410212F5001215D211D56FF478738F
:1011B000B3EB625212D94FEAC12343F0004343EA32
:1011C000505311F0004F23FA02F018BF404270470D
:1011D0004FF00000704750EA013005D111F0004097
:1011E00008BF6FF0004070474FF00000704700BF2D
:1011F000014B1860704700BF1C10002430B40C4B2A
:101200005D680C4A146800FB04F49B68002104E04C
:10121000E81A02441144A14208D21A46044B9B68C2
:101220009A42FBD0F4D9D21A1144F4E730BC70478B
:1012300010E000E01C10002408B54FF47A7303FBA3
:1012400000F0FFF7DBFF08BD08B580B2FFF7F4FF41
:1012500008BD00002DE9F0478CB0002407940894E5
:1012600009940A940B94524BD3F8E02042F01002F8
:10127000C3F8E020D3F8E02002F010020192019AB6
:10128000D3F8E02042F00402C3F8E020D3F8E020D5
:1012900002F004020292029AD3F8E02042F08002A7
:1012A000C3F8E020D3F8E02002F080020392039A12
:1012B000D3F8E02042F00102C3F8E020D3F8E020A8
:1012C00002F001020492049AD3F8E02042F00202F4
:1012D000C3F8E020D3F8E02002F002020592059A5C
:1012E000D3F8E02042F00802C3F8E020D3F8E03061
:1012F00003F008030693069BDFF8C0A022461821DE
:10130000504602F0FFFBDFF8B890224642F2B011DF
:10131000484602F0F7FBDFF8AC802246E021404669
:1013200002F0F0FB234E224641F28241304602F0A9
:10133000E9FB01221146304602F0E4FB1E4F224633
:10134000F821384602F0DEFB1823079301250895A3
:1013500009940A9407A9504602F0DEFA42F2B0134B
:101360000793089509940A9407A9484602F0D4FA0D
:10137000E0230793089509940A9407A9404602F0D0
:10138000CBFA41F283430793089509940A9407A97D
:10139000304602F0C1FAF8230793089509940A949D
:1013A00007A9384602F0B8FA0CB0BDE8F08700BFD4
:1013B00000440258000C0258000402580010025861
:1013C00000080258000002582DE9F04F83B0804613
:1013D000A2EB000A8946A3EB010BBAF1000F0DDD69
:1013E00001220092BBF1000F14DD01230193DA45C5
:1013F0001CDD564600252F462C461BE0BAF1000F97
:1014000005D0A0EB020A4FF0FF320092EAE7CDF8D8
:1014100000A0E7E7BBF1000F05D0A1EB030B4FF0F5
:10142000FF330193E3E7CDF804B0E0E75E46E1E780
:101430000134A4B2731C9C4212DC1FFA89F11FFA1A
:1014400088F000F0C3F857445D44BE4202DABF1B87
:10145000009B9844AE42EBDAAD1B019B9944E7E751
:1014600003B0BDE8F08F000010B5064C4FF4002328
:10147000A3614FF48013A36100F0FEFF0823A36172
:1014800010BD00BF0004025810B5054C4FF40023F6
:10149000A3611023A36100F0EFFF0823A36110BD37
:1014A0000004025810B50C46FFF7DEFFE0B2FFF76C
:1014B000EBFF10BD08B5024B187AFFF7D5FF08BD4A
:1014C0002410002438B50446074D4FF40023AB61C7
:1014D0001023AB61000A00F0CFFFE0B200F0CCFFB8
:1014E0000823AB6138BD00BF0004025810B5064C9C
:1014F0004FF40013A3616420FFF7A6FE2023A3612D
:101500003220FFF7A1FE10BD000402582DE9F04182
:1015100007460D4616461C46DFF8488098F80A0034
:10152000FFF7A2FF0020FFF7AFFFF8B2FFF7ACFF15
:101530000020FFF7A9FFF0B2FFF7A6FF98F80C0014
:10154000FFF792FF0020FFF79FFFE8B2FFF79CFF35
:101550000020FFF799FFE0B2FFF796FFFFF7AAFF21
:10156000BDE8F0812410002470B50546124B1A889E
:101570005B88013B013A9BB292B200210846FFF71B
:10158000C5FF0E4B4FF400229A6110229A6100268B
:1015900008E02846FFF796FF0134074B1B88A3425B
:1015A000F7D80136044B5B88B34201D90024F4E735
:1015B000024B08229A6170BD2410002400040258D6
:1015C00008B502460B46FFF7A1FF08BD08B5FFF7B7
:1015D000F7FF024B1888FFF775FF08BD20100024A5
:1015E00008B51A4B2A225A812B229A812C221A8161
:1015F00003280CD8DFE800F0020C151F134B8022E3
:101600001A80A0225A80C0213620FFF74BFF08BD68
:101610000E4BA021198080225A803620FFF742FF0E
:10162000F5E70A4B80221A80A0225A80002136203A
:10163000FFF738FFEBE7054BA0221A8080225A8083
:1016400060213620FFF72EFFE1E700BF24100024C1
:1016500008B5FFF74BFF1120FFF706FF7820FFF7D3
:10166000F3FDB120FFF700FF0120FFF70DFF2C2055
:10167000FFF70AFF2D20FFF707FFB220FFF7F4FE68
:101680000120FFF701FF2C20FFF7FEFE2D20FFF7C2
:10169000FBFEB320FFF7E8FE0120FFF7F5FE2C204C
:1016A000FFF7F2FE2D20FFF7EFFE0120FFF7ECFE23
:1016B0002C20FFF7E9FE2D20FFF7E6FEB420FFF710
:1016C000D3FE0720FFF7E0FEC020FFF7CDFEA220EB
:1016D000FFF7DAFE0220FFF7D7FE8420FFF7D4FEE3
:1016E000C120FFF7C1FEC520FFF7CEFEC220FFF7E5
:1016F000BBFE0A20FFF7C8FE0020FFF7C5FEC3208F
:10170000FFF7B2FE8A20FFF7BFFE2A20FFF7BCFEDC
:10171000C420FFF7A9FE8A20FFF7B6FEEE20FFF7F0
:10172000B3FEC520FFF7A0FE0E20FFF7ADFE36206A
:10173000FFF79AFEC020FFF7A7FEE020FFF794FE18
:101740000F20FFF7A1FE1A20FFF79EFE0F20FFF7E4
:101750009BFE1820FFF798FE2F20FFF795FE28200C
:10176000FFF792FE2020FFF78FFE2220FFF78CFE6E
:101770001F20FFF789FE1B20FFF786FE2320FFF7BF
:1017800083FE3720FFF780FE0020FFF77DFE072055
:10179000FFF77AFE0220FFF777FE1020FFF774FEB6
:1017A000E120FFF761FE0F20FFF76EFE1B20FFF721
:1017B0006BFE0F20FFF768FE1720FFF765FE332052
:1017C000FFF762FE2C20FFF75FFE2920FFF75CFE8B
:1017D0002E20FFF759FE3020FFF756FE3020FFF78E
:1017E00053FE3920FFF750FE3F20FFF74DFE00204B
:1017F000FFF74AFE0720FFF747FE0320FFF744FEEE
:101800001020FFF741FE2A20FFF72EFE0020FFF7F1
:101810003BFE0020FFF738FE0020FFF735FE7F205B
:10182000FFF732FE2B20FFF71FFE0020FFF72CFEF4
:101830000020FFF729FE0020FFF726FE9F20FFF77C
:1018400023FEF020FFF710FE0120FFF71DFEF6201B
:10185000FFF70AFE0020FFF717FE3A20FFF704FE0D
:101860000520FFF711FE2920FFF7FEFD0120FFF7FD
:10187000B7FE044B80229A614FF6FF70FFF774FEAB
:1018800008BD00BF000C0258002856D001280AD01D
:1018900002280DD010B4032817D004282CD0002023
:1018A0005DF8044B7047264B585C303880B2704767
:1018B000234A535C303B0131505C03EB830300EB64
:1018C000430080B2303880B270471D4C605C3038C5
:1018D0004B1CE35C303B00EB800000EB800203EB31
:1018E0008303580000EB820080B20231635C18442D
:1018F00080B2303880B2D3E7114C605C30384B1C7A
:10190000E35C303BC0EB401200EB820203EB83034D
:1019100003EB8303980000EBC20080B2CB1CE35CB6
:10192000303B03EB830300EB430080B20431635C84
:10193000184480B2303880B2B2E70020704700BF50
:1019400034100024F8B500231E461F461D461846D5
:10195000194607E05A1C214CA25C303A204C2270F8
:101960000133DBB2C72B37D81C4AD25C682AF1D0CE
:10197000782A24D0792A25D0722A28D0692AEFD152
:101980005C1EE4B2401AC0B201307F1BFFB20137C7
:10199000FFB2A41BE4B20134E4B2C0B2FFF774FF9B
:1019A000104B188029463846FFF76EFF0E4B188003
:1019B00031462046FFF768FF0C4B1880F8BD591CD4
:1019C000C9B2CDE7581EC0B25D1CEDB2C8E75F1EBC
:1019D000FFB25E1CF6B2C3E70024D3E73410002444
:1019E0002711002420110024221100242A11002490
:1019F00010B504460268D54B9A420AD02268D44BEF
:101A00009A4200F075832268D24B9A4200F08F838D
:101A100010BDD14A1078A0F13001D04B1970517827
:101A2000303959709278303A9A70312825D0CA4BA3
:101A30001B78322B00F0B780C74B1B78332B00F09C
:101A40003181C54B1B79312B00F0B881C24B1B791A
:101A5000322B00F04A82C04B1B79332B00F0C4823A
:101A600050231A4628211846FFF7AEFC3C235A2281
:101A700019464620FFF7A8FCC0E764230A22142178
:101A80001046FFF7A1FCB44B5B78322B47D0B24B2A
:101A90005B78332BCBD1B24B01221A7003225A70E0
:101AA00002229A701423232219461846FFF78CFC51
:101AB0003C23232214211046FFF786FC3C232322DB
:101AC00019461420FFF780FC642323223C21104692
:101AD000FFF77AFC6423232219461420FFF774FCD5
:101AE00014233C2219462D20FFF76EFC3C231A4696
:101AF00014211846FFF768FC3C231A4619462D208E
:101B0000FFF762FC64232D223C211046FFF75CFCAA
:101B100064233C2219462D20FFF756FC87E7904BA3
:101B200001221A7002225A7003229A70142323226F
:101B300019461846FFF748FC3C232322142110467F
:101B4000FFF742FC3C23232219461420FFF73CFCFC
:101B5000642314223C211046FFF736FC6423232221
:101B600019461420FFF730FC14233C2219462D207F
:101B7000FFF72AFC3C231A4614211846FFF724FCE1
:101B80003C231A4619462D20FFF71EFC64233C22F5
:101B900011461046FFF718FC64233C2219462D20FD
:101BA000FFF712FC73E71423192219460A20FFF7E6
:101BB0000BFC3C23192214211046FFF705FC3C23A3
:101BC000192219460A20FFF7FFFB64230A223C2151
:101BD0001046FFF7F9FB6423192219460A20FFF784
:101BE000F3FB5D4B5B78312B30D05B4B5B78332B59
:101BF0007FF422AF5A4B02221A7003225A7001223C
:101C00009A7064233C2214211046FFF7DDFB142355
:101C1000322219462320FFF7D7FB3C23322214211E
:101C20001046FFF7D1FB3C23322219462320FFF751
:101C3000CBFB642332223C211046FFF7C5FB642313
:101C4000322219462320FFF7BFFBF5E6444B022260
:101C50001A7001225A7003229A70642323221421DD
:101C60001046FFF7B1FB14233C2219462D20FFF745
:101C7000ABFB3C231A4614211846FFF7A5FB3C2377
:101C80001A4619462D20FFF79FFB64233C2211467C
:101C90001046FFF799FB64233C2219462D20FFF7DD
:101CA00093FBA2E71423192219460A20FFF78CFBA5
:101CB0003C23192214211046FFF786FB3C231922EE
:101CC00019460A20FFF780FB642319223C211046A5
:101CD000FFF77AFB6423192219460A20FFF774FBE9
:101CE0001D4B5B78312B3DD01B4B5B78322B7FF447
:101CF000A8AE1B4B03221A7002225A7001229A705E
:101D000064233C2214211046FFF75EFB1423322289
:101D100019462320FFF758FB3C233222142110469A
:101D2000FFF752FB3C23322219462320FFF74CFBDE
:101D3000642323223C211046FFF746FB6423322212
:101D400019462320FFF740FB7BE600BF001001404F
:101D500000480040005000400C11002424110024D1
:101D600004110024E04B03221A7001225A7002224F
:101D70009A706423232214211046FFF725FB1423B5
:101D80003C2219462D20FFF71FFB3C231A46142145
:101D90001846FFF719FB3C231A4619462D20FFF77A
:101DA00013FB64232D223C211046FFF70DFB642317
:101DB0003C2219462D20FFF707FB95E764231A46BE
:101DC00014211846FFF700FBC84B5B79322B48D033
:101DD000C64B5B79332B7FF439AEC34B0122DA70EB
:101DE00003221A7102225A7114237D2219466E2091
:101DF000FFF7EAFA3C237D2214211046FFF7E4FAAC
:101E00003C237D2219466E20FFF7DEFA64237D22F3
:101E10003C211046FFF7D8FA64237D2219466E2034
:101E2000FFF7D2FA1423962219468720FFF7CCFA3F
:101E30003C23962214211046FFF7C6FA3C23962233
:101E400019468720FFF7C0FA642387223C211046F9
:101E5000FFF7BAFA6423962219468720FFF7B4FAEF
:101E6000F4E5A14B0122DA7002221A7103225A71A1
:101E700014237D2219466E20FFF7A6FA3C237D220B
:101E800014211046FFF7A0FA3C237D2219466E204C
:101E9000FFF79AFA64236E223C211046FFF794FA6A
:101EA00064237D2219466E20FFF78EFA14239622B2
:101EB00019468720FFF788FA3C2396221421104602
:101EC000FFF782FA3C23962219468720FFF77CFA17
:101ED000642396223C211046FFF776FA642396226B
:101EE00019468720FFF770FA72E714237322194608
:101EF0006420FFF769FA3C23732214211046FFF790
:101F000063FA3C23732219466420FFF75DFA6423C9
:101F10001A463C211846FFF757FA642373221946E4
:101F20001846FFF751FA714B5B79312B30D06F4B6C
:101F30005B79332B7FF48FAD6B4B0222DA70032277
:101F40001A7101225A716423962214211046FFF758
:101F50003BFA14238C2219467D20FFF735FA3C23E7
:101F60008C2214211046FFF72FFA3C238C221946AD
:101F70007D20FFF729FA64238C223C211046FFF7CD
:101F800023FA64238C2219467D20FFF71DFA62E5AF
:101F9000554B0222DA7001221A7103225A7164230E
:101FA0007D2214211046FFF70FFA142396221946BA
:101FB0008720FFF709FA3C23962214211046FFF7E9
:101FC00003FA3C23962219468720FFF7FDF9642384
:101FD00096223C211046FFF7F7F964239622194612
:101FE0008720FFF7F1F9A2E7142373221946642032
:101FF000FFF7EAF93C23732214211046FFF7E4F9B6
:102000003C23732219466420FFF7DEF96423732210
:102010003C211046FFF7D8F964237322194618466D
:10202000FFF7D2F9314B5B79312B30D02F4B5B79F5
:10203000322B7FF415AD2C4B0322DA7002221A7179
:1020400001225A716423962214211046FFF7BCF92D
:1020500014238C2219467D20FFF7B6F93C238C22ED
:1020600014211046FFF7B0F93C238C2219467D203D
:10207000FFF7AAF964237D223C211046FFF7A4F95B
:1020800064238C2219467D20FFF79EF9E8E4164B65
:102090000322DA7001221A7102225A7164237D220E
:1020A00014211046FFF790F9142396221946872031
:1020B000FFF78AF93C23962214211046FFF784F992
:1020C0003C23962219468720FFF77EF96423872256
:1020D0003C211046FFF778F96423962219468720A1
:1020E000FFF772F9A2E700BF041100240C110024CD
:1020F0001C4A138801339BB21380013B1A4A1278A1
:102100001A49CA54692A07D0174900230B700122C3
:10211000174805F075FA76E4FFF714FCC822002191
:10212000124805F051FB0F4B00221A80ECE7114CCE
:102130002278114B1A7062785A70A2789A70E278FD
:10214000DA700E4A012111701868FEF73DFA024656
:102150000B460B4805F088FB04222146094805F090
:102160004FFA55E40A1100242811002434100024E9
:1021700018120024FC10002400110024291100244E
:10218000A0C900084013002472B6FEE700B59FB056
:102190004C2200210BA805F017FB2022002103A8E8
:1021A00005F012FB022001F0BDFC00230093384B28
:1021B000DA6A22F00102DA62DB6A03F001030093BB
:1021C000344B9A6942F440429A619B6903F440435C
:1021D0000093009B2F4B9B6913F4005FFAD02E4BAA
:1021E000D3F8F42042F00202C3F8F420D3F8F4301C
:1021F00003F002030193019B00230293254B9A698C
:1022000042F440429A619B6903F440430293204B9D
:10221000DA6A42F00102DA62DB6A03F00103029338
:10222000029B1C4B9B6913F4005FFAD001220B92B6
:102230004FF480330C93022314931593169250227B
:102240001792189319931A930C231B9300231C9332
:102250001D930BA801F090FCB0B93F230393032317
:1022600004930023059308230693402307930893C0
:102270004FF4806209920A93042103A802F0D0F877
:1022800020B91FB05DF804FBFFF77EFFFFF77CFF6E
:1022900000040058004802580044025808B500F0F5
:1022A000B5FFFFF773FFFEF7D5FFFFF7D1F900F099
:1022B00071FD00F01BFD00F0D5FD00F007FE00F001
:1022C0009DFD07222749284805F09AF90122274950
:1022D000274805F095F904222649274805F090F98A
:1022E000264C0821204603F0D7FD0C21204603F0A0
:1022F000D3FD234800F050F84FF4F070FEF778FF5C
:10230000204D01221021284601F0FCFB012208216A
:10231000284601F0F7FB4FF47A70FEF78DFF50234B
:102320001A4628211846FFF74FF83C235A2219462F
:102330004620FFF749F840F6B830FEF77DFF2368E6
:1023400040F62E121A64104B1B78002BFBD00F4A5C
:1023500012789342FBD10E490E4800F0BBF800F012
:10236000A7F8FEE70C110024841100242811002492
:1023700018120024FC1000244013002438110024FB
:10238000AC1200240010025804110024271100246C
:10239000221100242011002408B5054B1860054BBC
:1023A0001868002302221946806805F0C7FA08BDA4
:1023B0002C11002454060024022801D80120704763
:1023C00008B505F0D7F909230360002008BD000017
:1023D00010B5013801280AD814464FF0FF3392B2E5
:1023E0000748006804F0DEFE40B9204610BD05F045
:1023F000C1F9092303604FF0FF30F7E70520F5E747
:102400002C110024022801D80020704708B505F0DF
:10241000B1F9092303604FF0FF3008BD08B505F09E
:10242000A9F9092303604FF0FF3008BD08B548B98A
:102430004FF0FF3301220848006804F01DFF40B947
:10244000012008BD05F096F9092303604FF0FF3025
:10245000F7E70520F5E700BF2C11002408B5022896
:1024600004D84FF400534B60002008BD05F082F9FA
:1024700009230360F8E7000008230CE00B4A8021E1
:1024800091610A4A4FF480019161402191614000BD
:10249000C0B2013BDBB23BB110F0800FEED1034A7A
:1024A0004FF400019161ECE7704700BF000402584F
:1024B00008B54FF4486000F07DFA054B1B684FF4F7
:1024C000C862DA634FF4486000F0E4F908BD00BF69
:1024D00038110024F8B507460E460488DE3C24B2C5
:1024E0000D88663D2DB215E0002C1FDB002C21DC91
:1024F000002D23DC002D25DB0520FEF79DFE39880D
:10250000A1F1DE0424B23288A2F166052DB20F4893
:1025100005F0AAF9A31C9BB2042BE5D8AB1C9BB217
:10252000042BE1D80A4805F001FAF8BD012000F0BB
:10253000E1F8DBE7012000F045F9D9E7012000F0E0
:1025400071F8D7E7012000F005F8D5E7B0C9000819
:10255000B8C90008F8B507462E4C012210212046C4
:1025600001F0D0FA01222021204601F0CBFA04F537
:10257000006400221021204601F0C4FA0022082144
:10258000204601F0BFFA244B00221A60224B1B6840
:10259000BB423DD21F4D4FF40051284601F0B8FA1E
:1025A0001E4C01224021204601F0ACFA012280217C
:1025B000204601F0A7FA01228021284601F0A2FA64
:1025C000174E01224FF48051304601F09BFA9620BD
:1025D000FEF714FE00224021204601F093FA00226B
:1025E0008021204601F08EFA00228021284601F049
:1025F00089FA00224FF48051304601F083FA4FF4FB
:10260000FA60FEF7FBFD044A136801331360BDE76F
:10261000F8BD00BF00080258301100240000025825
:10262000000C0258F8B507462E4C00221021204617
:1026300001F068FA00222021204601F063FA04F537
:10264000006401221021204601F05CFA01220821D9
:10265000204601F057FA244B00221A60224B1B68D7
:10266000BB423DD21F4D4FF40051284601F050FAB5
:102670001E4C01224021204601F044FA0122802113
:10268000204601F03FFA01228021284601F03AFA63
:10269000174E01224FF48051304601F033FA962054
:1026A000FEF7ACFD00224021204601F02BFA00226B
:1026B0008021204601F026FA00228021284601F0E0
:1026C00021FA00224FF48051304601F01BFA4FF4FA
:1026D000FA60FEF793FD044A136801331360BDE707
:1026E000F8BD00BF00080258301100240000025855
:1026F000000C0258F8B507462D4D0022102128463F
:1027000001F000FA2B4C01220821204601F0FAF9D1
:1027100001222021284601F0F5F90022102120464F
:1027200001F0F0F9244B00221A60234B1B68BB42D6
:102730003DD21F4D4FF40051284601F0E9F91F4CDE
:1027400001224021204601F0DDF9012280212046AE
:1027500001F0D8F901228021284601F0D3F9184E62
:1027600001224FF48051304601F0CCF99620FEF75B
:1027700045FD00224021204601F0C4F900228021BD
:10278000204601F0BFF900228021284601F0BAF965
:1027900000224FF48051304601F0B4F94FF4FA6052
:1027A000FEF72CFD044A136801331360BDE7F8BD42
:1027B000000802580010025830110024000002588E
:1027C000000C0258F8B507462D4D0122102128466D
:1027D00001F098F92B4C00220821204601F092F9D3
:1027E00000222021284601F08DF9012210212046E7
:1027F00001F088F9244B00221A60234B1B68BB426E
:102800003DD21F4D4FF40051284601F081F91F4C75
:1028100001224021204601F075F901228021204645
:1028200001F070F901228021284601F06BF9184E61
:1028300001224FF48051304601F064F99620FEF7F2
:10284000DDFC00224021204601F05CF900228021BD
:10285000204601F057F900228021284601F052F964
:1028600000224FF48051304601F04CF94FF4FA60E9
:10287000FEF7C4FC044A136801331360BDE7F8BDDA
:1028800000080258001002583011002400000258BD
:10289000000C025870B5054600224FF48061404894
:1028A00001F030F93F4B00221A603E4B1A683E4B54
:1028B0001B689A421FD23D4C4FF40051204601F054
:1028C00027F901224FF48071204601F01BF9962070
:1028D000FEF794FC00224FF48071204601F012F9BB
:1028E000304C2268324B53F82200FEF787FC2368F5
:1028F00001332360D9E700262B4B1B68A5EB43036C
:10290000143BB3421ED9294C4FF40051204601F02C
:10291000FFF801224FF48071204601F0F3F8962071
:10292000FEF76CFC00224FF48071204601F0EAF8BB
:102930001D4B1B68013B1E4A52F82300FEF75EFC4C
:102940000136D9E7174B00221A6022E0174C4FF4EA
:102950000051204601F0DCF801224FF4807120463E
:1029600001F0D0F89620FEF749FC00224FF4807168
:10297000204601F0C7F80B4C0B4B1B6822689B1AD2
:10298000013B0B4A52F82300FEF738FC2368013361
:102990002360044B1A68044B1B689A42D6D370BD5F
:1029A000000C025830110024400600240008025890
:1029B0000000002470B5054601224FF480614048B4
:1029C00001F0A0F83F4B00221A603E4B1A683E4BC4
:1029D0001B689A421FD23D4C4FF40051204601F033
:1029E00097F801224FF48071204601F08BF8962071
:1029F000FEF704FC00224FF48071204601F082F8BB
:102A0000304C2268324B53F82200FEF7F7FB236864
:102A100001332360D9E700262B4B1B68A5EB43034A
:102A2000143BB3421ED9294C4FF40051204601F00B
:102A30006FF801224FF48071204601F063F8962070
:102A4000FEF7DCFB00224FF48071204601F05AF8BB
:102A50001D4B1B68013B1E4A52F82300FEF7CEFBBC
:102A60000136D9E7174B00221A6022E0174C4FF4C9
:102A70000051204601F04CF801224FF480712046AD
:102A800001F040F89620FEF7B9FB00224FF4807168
:102A9000204601F037F80B4C0B4B1B6822689B1A41
:102AA000013B0B4A52F82300FEF7A8FB23680133D1
:102AB0002360044B1A68044B1B689A42D6D370BD3E
:102AC000000C02583011002440060024000802586F
:102AD0000000002400B583B0094BD3F8F42042F085
:102AE0000202C3F8F420D3F8F43003F00203019398
:102AF000019B042000F0D0FB03B05DF804FB00BF95
:102B000000440258FEE7FEE7FEE7FEE7FEE77047F7
:102B10007047704708B500F0A7FB08BD08B502482C
:102B200003F00AFB08BD00BF8411002408B5024869
:102B300003F002FB08BD00BF1812002408B50248CC
:102B400003F0FAFA08BD00BF4013002410B5034695
:102B50000C4A0D490D48006840B10C480068034418
:102B6000521A934206D8094A136010BD0748084C10
:102B70000460F2E704F0FEFD0C2303604FF0FF3029
:102B8000F3E700BF00000824000400003411002413
:102B900038140024274AD2F8883043F47003C2F86E
:102BA0008830254B1B6803F00F03062B06D8224AFA
:102BB000136823F00F0343F0070313601F4B1A68D9
:102BC00042F001021A6000221A6119681C4A0A4088
:102BD0001A60194B1B6813F0080F06D0164A1368C9
:102BE00023F00F0343F007031360144B00229A6194
:102BF000DA611A62134999621349D9621349196358
:102C00005A639963DA6319645A64196821F480215C
:102C100019601A660E4B1A680E4B1340B3F1005F31
:102C200002D20D4B01221A600C4B43F2D2021A6001
:102C3000704700BF00ED00E0002000520044025841
:102C40007FEDF6EA000202020000FF0180020101AE
:102C50000010005C0000FFFF08810051004000529E
:102C60000368B3F1804F00D0704782B0074BD3F8B0
:102C7000E82042F00102C3F8E820D3F8E83003F07E
:102C800001030193019B02B0704700BF004402584A
:102C900000B587B000230193029303930493059337
:102CA0000368B3F1804F02D007B05DF804FB0D4B11
:102CB000D3F8E02042F00102C3F8E020D3F8E0307E
:102CC00003F001030093009B0E2301930223029360
:102CD0000023039304930123059301A9024800F004
:102CE0001BFEE1E7004402580000025800B58BB01B
:102CF000002307930893099300930193029303938E
:102D000004930593069322484FF080420260EF221D
:102D10004260836044F61F62C26003618023836166
:102D200002F090FF28BB00230793099307A91848D6
:102D300003F066F900BB6023009300230193029324
:102D4000049304226946124802F0F6FFB8B908223B
:102D500069460F4802F0F0FFA0B90C2269460C4802
:102D600002F0EAFF88B90A48FFF792FF0BB05DF85E
:102D700004FBFFF709FAD6E7FFF706FADBE7FFF7F0
:102D800003FAE4E7FFF700FAE7E7FFF7FDF9EAE700
:102D90003811002408B51748174B03604FF4E1338E
:102DA000436000238360C36003610C22426183613E
:102DB000C36103624362836204F051FB70B9002176
:102DC0000C4804F08DFC60B900210A4804F0ADFC09
:102DD00050B9084804F065FC48B908BDFFF7D4F9BC
:102DE000EDE7FFF7D1F9EFE7FFF7CEF9F1E7FFF7EE
:102DF000CBF9F2E7AC120024004C004008B51748AC
:102E0000174B03604FF4E133436000238360C360DA
:102E100003610C2242618361C36103624362836286
:102E200004F01DFB70B900210C4804F059FC60B996
:102E300000210A4804F079FC50B9084804F031FC3C
:102E400048B908BDFFF7A0F9EDE7FFF79DF9EFE7F7
:102E5000FFF79AF9F1E7FFF797F9F2E7401300243B
:102E60000050004008B51748174B03604FF4165345
:102E7000436000238360C36003610C22426183616D
:102E8000C36103624362836204F0E9FA70B900210E
:102E90000C4804F025FC60B900210A4804F045FC08
:102EA00050B9084804F0FDFB48B908BDFFF76CF9BC
:102EB000EDE7FFF769F9EFE7FFF766F9F1E7FFF7ED
:102EC00063F9F2E7841100240010014008B51748A7
:102ED000174B03604FF41653436000238360C360B5
:102EE00003610C2242618361C361036243628362B6
:102EF00004F0B5FA70B900210C4804F0F1FB60B998
:102F000000210A4804F011FC50B9084804F0C9FB3C
:102F100048B908BDFFF738F9EDE7FFF735F9EFE7F6
:102F2000FFF732F9F1E7FFF72FF9F2E71812002463
:102F30000048004030B5BFB00446002139913A91B5
:102F40003B913C913D91C02208A804F03DFC2368D0
:102F50007D4A93420BD07D4A93423DD07C4A9342B6
:102F600077D07C4A934200F0B1803FB030BD02225E
:102F70000023CDE908230023269308A801F0ECFCE8
:102F800038BB754BD3F8E82042F40022C3F8E820A0
:102F9000D3F8E82002F400220092009AD3F8E0204F
:102FA00042F00102C3F8E020D3F8E03003F001035F
:102FB0000193019B4FF4C053399302233A930023AA
:102FC0003B933C9306233D9339A9644800F0A4FC4D
:102FD000CBE7FFF7D9F8D4E702220023CDE9082395
:102FE0000023269308A801F0B7FC78BB5A4BD3F80E
:102FF000E82042F48012C3F8E820D3F8E82002F475
:1030000080120292029AD3F8E02042F00202C3F842
:10301000E020D3F8E03003F002030393039B4FF466
:103020004053399302233A9300243B943C940E235B
:103030003D9339A94A4800F06FFC224621463520CD
:1030400000F03CF9352000F06BF98EE7FFF79CF8B3
:10305000CCE701220023CDE908230023279308A809
:1030600001F07AFC78BB3C4BD3F8F02042F0100220
:10307000C3F8F020D3F8F02002F010020492049A72
:10308000D3F8E02042F00102C3F8E020D3F8E030AA
:1030900003F001030593059B4FF4C06339930223AA
:1030A0003A9300243B943C9407233D9339A92B4841
:1030B00000F032FC01222146252000F0FFF82520F7
:1030C00000F02EF951E7FFF75FF8CCE7022200236A
:1030D000CDE908230023269308A801F03DFC78BB26
:1030E0001D4BD3F8E82042F48022C3F8E820D3F83F
:1030F000E82002F480220692069AD3F8E02042F0FB
:103100000802C3F8E020D3F8E03003F00803079387
:10311000079B4FF44073399302253A9500243B9462
:103120003C9407233D9339A90E4800F0F5FB224655
:103130002946272000F0C2F8272000F0F1F814E714
:10314000FFF722F8CCE700BF004C004000500040E1
:10315000001001400048004000440258000002589E
:1031600000040258000C0258DFF834D0FFF712FDBB
:103170000C480D490D4A002302E0D458C4500433D2
:10318000C4188C42F9D30A4A0A4C002301E01360A8
:103190000432A242FBD304F0F3FAFFF77FF8704742
:1031A000000008240000002400100024B4CC000813
:1031B0000010002434140024FEE70000104B1B789C
:1031C0000BB90120704710B504464FF47A70B0FB7C
:1031D000F3F30C4A1068B0FBF3F000F0AFF868B9F5
:1031E0000F2C01D901200AE0002221464FF0FF30C8
:1031F00000F064F8044B1C60002000E0012010BDCA
:103200004C060024440600245006002410B5032078
:1032100000F042F801F00AF80F498B69C3F3032369
:103220000E4AD35C03F01F03D8408B6903F00F03F1
:10323000D35C03F01F0320FA03F3094A1360094B20
:1032400018600720FFF7BAFF10B10124204610BD17
:103250000446FFF73FFCF9E700440258DCC90008C8
:103260004806002444060024034B1B78034A1168D7
:103270000B441360704700BF4C060024D413002495
:10328000014B1868704700BFD4130024014B186825
:10329000000C70470010005C0649CB6823F4E06323
:1032A0001B041B0C000200F4E0600343024A1A43B3
:1032B000CA60704700ED00E00000FA0530B4154B1D
:1032C000DB68C3F30223C3F10704042C28BF0424E2
:1032D0001D1D062D14D9033B4FF0FF3505FA04F4EC
:1032E00021EA0401994005FA03F322EA0303194392
:1032F000002807DB0901C9B2074B195430BC7047DD
:103300000023E9E700F00F000901C9B2034B19548B
:10331000F4E700BF00ED00E000E400E014ED00E0A1
:10332000002807DB00F01F02400901239340024AF6
:1033300042F82030704700BF00E100E00138B0F1F2
:10334000807F0AD2064B5860064AF02182F823108B
:103350000020986007221A6070470120704700BF64
:1033600010E000E000ED00E070B50446FFF788FFD4
:10337000002C00F09181054694F83530DBB2022B29
:1033800006D080236365002384F83430012070BDAB
:1033900023688C498C4A934218BF8B4230D0183234
:1033A00093422DD0183293422AD01832934227D01C
:1033B0001832934224D01832934221D018329342CB
:1033C0001ED002F5567293421AD01832934217D08B
:1033D0001832934214D01832934211D018329342CB
:1033E0000ED0183293420BD01832934208D01832C4
:1033F000934205D01A6822F00E021A60266809E08E
:103400001A6822F01E021A602268536923F08003B2
:103410005361266823686B496B4A934218BF8B42FD
:1034200042D0183293423FD0183293423CD01832E7
:10343000934239D01832934236D01832934233D067
:103440001832934230D002F5567293422CD0183283
:10345000934229D01832934226D01832934223D077
:103460001832934220D0183293421DD01832934222
:103470001AD01832934217D0544A934214D01432BF
:10348000934211D0143293420ED0143293420BD097
:103490001432934208D01432934205D0143293422E
:1034A00002D01432934204D1226E136823F4807345
:1034B000136023684349444A934218BF8B422FD07C
:1034C000183293422CD01832934229D018329342AA
:1034D00026D01832934223D01832934220D018328B
:1034E00093421DD002F55672934219D0183293427E
:1034F00016D01832934213D01832934210D018329B
:1035000093420DD0183293420AD01832934207D01A
:103510001832934204D01A6822F001021A6003E0C4
:103520001A6822F001021A60336813F0010F0ED0FE
:10353000FFF7A6FE431B052BF6D920236365032363
:1035400084F83530002384F8343001201FE72368E5
:103550001C491D4A934218BF8B4239D018329342FE
:1035600036D01832934233D01832934230D01832CA
:1035700093422DD0183293422AD01832934227D04A
:1035800002F55672934223D01832934220D018325B
:1035900093421DD0183293421AD01832934217D05A
:1035A0001832934214D01832934211D018329342F9
:1035B0000ED0A16DE36D03F01F02012393404B6019
:1035C0000DE000BF100002402800024008540258DD
:1035D000A16DE36D03F01F023F2393408B602368CE
:1035E0002E492F4A934218BF8B4242D01832934241
:1035F0003FD0183293423CD01832934239D018321F
:10360000934236D01832934233D01832934230D09E
:1036100002F5567293422CD01832934229D01832B8
:10362000934226D01832934223D01832934220D0AE
:10363000183293421DD0183293421AD01832934256
:1036400017D0184A934214D01432934211D0143236
:1036500093420ED0143293420BD01432934208D0CE
:103660001432934205D01432934202D01432934262
:103670000BD1636EA26E5A60E36E33B11A6822F406
:1036800080721A60236F626F5A60012384F83530AC
:10369000002084F834007AE6012078E61000024029
:1036A0002800024008540258002800F0298108B57B
:1036B000024690F83530DBB2022B03D080234365FD
:1036C000012008BD0368904890498B4218BF83428F
:1036D0000CBF0121002166D03030834263D0183006
:1036E000834260D0183083425DD0183083425AD074
:1036F0001830834257D01830834254D000F55670AA
:10370000834250D0183083424DD0183083424AD083
:103710001830834247D01830834244D01830834257
:1037200041D0183083423ED0183083423BD01968D4
:1037300021F00E0119601368A0F5956073498B4262
:1037400018BF83426AD072498B4267D018318B42CE
:1037500064D018318B4261D018318B425ED0183161
:103760008B425BD018318B4258D001F556718B4299
:1037700054D018318B4251D018318B424ED0183171
:103780008B424BD018318B4248D018318B4245D0F8
:1037900018318B4242D018318B423FD0196821F04A
:1037A000010119603EE0042082F8350081BB584ACF
:1037B00093422DD0183293422AD01832934227D008
:1037C0001832934224D01832934221D018329342B7
:1037D0001ED002F5567293421AD01832934217D077
:1037E0001832934214D01832934211D018329342B7
:1037F0000ED0183293420BD01832934208D01832B0
:10380000934205D01A6822F001021A60002058E79E
:103810001A6822F001021A60002052E7196821F0AC
:10382000010119601368384838498B4218BF834238
:1038300042D018318B423FD018318B423CD01831E6
:103840008B4239D018318B4236D018318B4233D06D
:1038500018318B4230D001F556718B422CD0183183
:103860008B4229D018318B4226D018318B4223D07D
:1038700018318B4220D018318B421DD018318B4229
:103880001AD018318B4217D022498B4214D01431F0
:103890008B4211D014318B420ED014318B420BD09D
:1038A00014318B4208D014318B4205D014318B4235
:1038B00002D014318B4217D1116E0B6823F4807340
:1038C0000B60906DD36D03F01F0101238B404360AB
:1038D000536E916E5960D36E33B1196821F48071C3
:1038E0001960136F516F5960012382F8353000233E
:1038F00082F83430136D2BB1104698470020E0E673
:10390000012070470020DCE6100002402800024041
:103910004000024008540258F0B482B000235FE037
:1039200086685F000325BD4026EA0506CD68BD40D8
:1039300035438560466826EA04064D68C5F30014E1
:103940009C40344344605AE0DD08083550F8257047
:1039500003F00704A6000F24B44027EA04070C690B
:10396000B4403C4340F825405DE0092400E00024D9
:10397000B4403C4302355F4E46F825404FF0B0441A
:103980002568D44325EA02064F6817F4801F01D04A
:1039900042EA05064FF0B0452E606E6804EA06055F
:1039A0004F6817F4001F01D042EA06054FF0B046F9
:1039B0007560514D6D6804EA05064F6817F4003FC5
:1039C00001D042EA05064C4D6E602D682C404E68D1
:1039D00016F4803F01D042EA0504474A14600133DF
:1039E0000A6832FA03F400F0828001249C402240ED
:1039F000F5D04D6805F00305013D012D90D94C68C7
:103A000004F00304032C09D0C5685E000324B4400D
:103A100025EA04058C68B4402C43C4604C6804F06B
:103A20000304022C90D005685E000324B44025EA0C
:103A300004054C6804F00304B4402C4304604C6853
:103A400014F4403FCBD02D4CD4F8F45045F002058F
:103A5000C4F8F450D4F8F44004F002040194019C3A
:103A60009D08AE1C234C54F8267003F00304A600F6
:103A70000F24B44027EA0407214CA0423FF477AF5B
:103A800004F58064A04222D004F58064A04220D0D6
:103A900004F58064A0421ED004F58064A0421CD0CE
:103AA00004F58064A0421AD004F58064A04218D0C6
:103AB00004F58064A04216D004F58064A04214D0BE
:103AC00004F58064A0423FF450AF0A2450E701247B
:103AD0004EE702244CE703244AE7042448E7052480
:103AE00046E7062444E7072442E7082440E702B0FB
:103AF000F0BC704700040058800000580044025891
:103B0000000002580AB18161704709048161704761
:103B1000436901EA030221EA030141EA02418161AA
:103B200070470000134BDB6813F0040F07D1114BF3
:103B3000DB6803F0070383421AD00120704710B5F9
:103B40000C4AD36823F007031843D060FFF798FBB3
:103B50000446084B5B6813F4005F07D1FFF790FB46
:103B6000001BB0F57A7FF4D9012000E0002010BDE1
:103B70000020704700480258002800F0398338B50B
:103B80000446036813F0010F25D0A74A136903F018
:103B90003803926A102B15D0182B0FD06368B3F539
:103BA000803F3FD0002B53D19F4B1A6822F48032C4
:103BB0001A601A6822F480221A6038E002F00302C8
:103BC000022AEBD1984B1B6813F4003F03D06368C3
:103BD000002B00F00F83236813F0020F00F0A18088
:103BE000914A1369926A13F038035AD0182B55D0B2
:103BF000E368002B00F0DE808B490A6822F019028E
:103C000013430B60FFF73CFB0546874B1B6813F023
:103C1000040F40F0AD80FFF733FB401B0228F4D9BE
:103C20000320EEE2804A136843F480331360636834
:103C30002BB3FFF725FB05467B4B1B6813F4003FB6
:103C4000C9D1FFF71DFB401B6428F5D90320D8E23A
:103C5000B3F5A02F09D0744B1A6822F480321A6091
:103C60001A6822F480221A60E1E76F4B1A6842F466
:103C700080221A601A6842F480321A60D7E7FFF790
:103C8000FFFA0546684B1B6813F4003FA3D0FFF70B
:103C9000F7FA401B6428F5D90320B2E212F0030FB3
:103CA000A6D1614B1B6813F0040F03D0E368002B0F
:103CB00000F0A2825C4A136823F01903E1680B4309
:103CC0001360FFF7DDFA0546574B1B6813F0040F2E
:103CD00006D1FFF7D5FA401B0228F5D9032090E260
:103CE000FFF7D4FA41F20303984212D82269402A1E
:103CF00007D04D494B6823F47C3343EA02334B60D1
:103D00000FE0494A536823F47C3343F40033536093
:103D100007E0454A536823F0FE43216943EA016303
:103D20005360236813F0100F00F088803E4A136937
:103D300003F03803926A082B54D0182B4ED0E36955
:103D4000002B00F0B880384A136843F080031360FA
:103D5000FFF796FA0546344B1B6813F4807F40F05A
:103D60008880FFF78DFA401B0228F4D9032048E22F
:103D7000FFF78CFA41F20303984212D82269402AD5
:103D800007D029494B6823F47C3343EA02334B6064
:103D9000C7E7254A536823F47C3343F40033536068
:103DA000BFE7214A536823F0FE43216943EA0163D8
:103DB0005360B6E71C4A136823F001031360FFF752
:103DC0005FFA0546184B1B6813F0040FA9D0FFF7E4
:103DD00057FA401B0228F5D9032012E202F0030231
:103DE000012AACD1104B1B6813F4807F03D0E36928
:103DF000802B40F00382FFF749FA41F20303984217
:103E000014D8226A202A07D007494B6823F0F843C8
:103E100043EA82634B6011E0034A536823F0F8439E
:103E200043F08043536009E0004402589A4AD36843
:103E300023F07C53216A43EA0163D360236813F0C3
:103E4000080F60D06369002B49D0934A536F43F049
:103E500001035367FFF714FA05468F4B5B6F13F0AE
:103E6000020F50D1FFF70CFA401B0228F5D90320AE
:103E7000C7E1FFF70BFA41F20303984212D8226A16
:103E8000202A07D084494B6823F0F84343EA826331
:103E90004B60D3E7804A536823F0F84343F08043F4
:103EA0005360CBE77C4AD36823F07C53216A43EA12
:103EB0000163D360C2E7784A136823F0800313607C
:103EC000FFF7DEF90546744B1B6813F4807FB5D00D
:103ED000FFF7D6F9401B0228F5D9032091E16E4A7D
:103EE000536F23F001035367FFF7CAF905466A4B86
:103EF0005B6F13F0020F06D0FFF7C2F9401B0228D8
:103F0000F5D903207DE1236813F0200F29D0A369A0
:103F10009BB1614A136843F480531360FFF7B0F913
:103F200005465D4B1B6813F4005F1AD1FFF7A8F933
:103F3000401B0228F5D9032063E1574A136823F494
:103F400080531360FFF79CF90546534B1B6813F42D
:103F5000005F06D0FFF794F9401B0228F5D9032033
:103F60004FE1236813F0040F21D1636A002B00F0A6
:103F70004781494A126902F03802182A00F0EE809F
:103F8000022B75D0444A136823F080731360FFF747
:103F900077F90446404B1B6813F0007F00F0DC808B
:103FA000FFF76EF9001B0228F4D9032029E13B4AF0
:103FB000136843F480731360FFF762F90546374BCB
:103FC0001B6813F4807F06D1FFF75AF9401B642861
:103FD000F5D9032015E1A368012B0AD00BBB2E4BAA
:103FE0001A6F22F001021A671A6F22F004021A6790
:103FF00004E0294A136F43F001031367A36833B346
:10400000FFF73EF90546244B1B6F13F0020FACD1AE
:10401000FFF736F9401B41F288339842F3D9032069
:10402000EFE0052B09D01C4B1A6F22F001021A6732
:104030001A6F22F004021A67E0E7174B1A6F42F07A
:1040400004021A671A6F42F001021A67D6E7FFF7F7
:1040500017F90546104B1B6F13F0020F85D0FFF7C1
:104060000FF9401B41F288339842F3D90320C8E08E
:10407000094A136823F080731360FFF701F90546BE
:10408000054B1B6813F0007F0AD0FFF7F9F8401BBF
:104090000228F5D90320B4E0004402580048025831
:1040A0005F4B996A5F4A0A40A16AE06A41EA0011DF
:1040B0000A439A62226B013AC2F30802616B01392A
:1040C000490289B20A43A16B0139090401F4FE01D6
:1040D0000A43E16B0139090601F0FE410A431A6304
:1040E000DA6A22F00102DA62596B4F4A0A40A16C87
:1040F00042EAC1025A63DA6A22F00C02216C0A43D6
:10410000DA62DA6A22F00202616C0A43DA62DA6A7F
:1041100042F48032DA62DA6A42F40032DA62DA6A4F
:1041200042F48022DA62DA6A42F00102DA621A6844
:1041300042F080721A60FFF7A3F80446384B1B6800
:1041400013F0007F06D1FFF79BF8001B0228F5D97A
:10415000032056E0002054E0002052E0304A916AEB
:10416000106B012B4ED001F00303A26A93424BD196
:10417000C1F30511E36A994248D1C0F30802236BE9
:10418000013B9A4244D1C0F34622636B013B9A4201
:1041900040D1C0F30642A36B013B9A423CD1C0F32D
:1041A0000660E36B013B984238D11D4B5B6BC3F358
:1041B000CC03A26C9A4201D1002022E0184AD36AB3
:1041C00023F00103D362FFF75BF80546FFF758F8C9
:1041D000A842FBD0124A516B134B0B40A16C43EA2F
:1041E000C1035363D36A43F00103D362002008E0A4
:1041F00001207047012004E0012002E0012000E0DE
:10420000002038BD0120FCE70120FAE70120F8E793
:104210000120F6E70120F4E70120F2E70120F0E7B2
:10422000004402580CFCFFFF0700FFFF744B1B69A2
:1042300003F03803102B00F0DF80182B10D00BB1E7
:10424000704870476E4B1B6813F0200F00F0D6804B
:104250006B4B1868C0F3C1006B4B23FA00F070473A
:1042600010B4674A916A01F00301946AC4F305101F
:10427000D36A03F00103526BC2F3CC0203FB02F3D7
:1042800007EE903AF8EE677A14F47C7F00F09480A1
:10429000012966D0022900F09280E1B107EE100AF0
:1042A000F8EE476A9FED596A86EE267A544B1B6BEF
:1042B000C3F3080306EE903AF8EE666A9FED546A7F
:1042C00067EE867A76EEA77AF7EE006A77EEA67A40
:1042D00027EE277A61E04A4B1B6813F0200F23D0AA
:1042E00047490A68C2F3C102474BD34007EE103A70
:1042F000F8EE476A07EE100AB8EE476A86EE867A4D
:104300000B6BC3F3080306EE903AF8EE666A9FED76
:10431000406A67EE867A76EEA77AF7EE006A77EE65
:10432000A67A27EE277A38E007EE100AF8EE476AF9
:104330009FED386A86EE267A314B1B6BC3F3080378
:1043400006EE903AF8EE666A9FED316A67EE867A7D
:1043500076EEA77AF7EE006A77EEA67A27EE277A4E
:104360001BE007EE100AF8EE476A9FED286A86EE1A
:10437000267A234B1B6BC3F3080306EE903AF8EE44
:10438000666A9FED236A67EE867A76EEA77AF7EE85
:10439000006A77EEA67A27EE277A194B1B6BC3F3D8
:1043A0004623013307EE903AF8EE677AC7EE276AA4
:1043B000FCEEE67A17EE900A5DF8044B704707EEC4
:1043C000100AF8EE476A9FED146A86EE267A0C4BC7
:1043D0001B6BC3F3080306EE903AF8EE666A9FED96
:1043E0000C6A67EE867A76EEA77AF7EE006A77EEC9
:1043F000A67A27EE277AD0E7084870470248704728
:104400000044025800093D000090D0030024744A83
:10441000000000390024744C001B374B001BB70010
:10442000002800F0328170B50D4604469B4B1B6896
:1044300003F00F038B420BD2984A136823F00F034B
:104440000B431360136803F00F038B4240F01F818E
:10445000236813F0040F0CD02269914B9B6903F081
:1044600070039A4205D98E498B6923F070031A4371
:104470008A61236813F0080F0CD06269884BDB69EE
:1044800003F070039A4205D98549CB6923F0700384
:104490001A43CA61236813F0100F0CD0A269804B35
:1044A000DB6903F4E0639A4205D97D49CB6923F4C3
:1044B000E0631A43CA61236813F0200F0CD0E2694D
:1044C000774B1B6A03F070039A4205D974490B6A53
:1044D00023F070031A430A62236813F0020F0CD012
:1044E000E2686F4B9B6903F00F039A4205D96C4950
:1044F0008B6923F00F031A438A61236813F0010FBD
:1045000041D0674A936923F47063A1680B439361B8
:104510006368022B0AD0032B27D0012B2CD0604AD2
:10452000126812F0040F06D10120ADE0126812F4F7
:10453000003F00F0AE805A490A6922F00702134397
:104540000B61FEF79DFE0646554B1B6903F03803D1
:104550006268B3EBC20F16D0FEF792FE801B41F2E9
:1045600088339842F0D903208EE04D4A126812F049
:10457000007FE0D1012087E0494A126812F4807F71
:10458000D9D1012080E0236813F0020F0CD0E2683B
:10459000434B9B6903F00F039A4205D240498B6954
:1045A00023F00F031A438A613C4B1B6803F00F038F
:1045B000AB420AD9394A136823F00F032B43136027
:1045C000136803F00F03AB4265D1236813F0040FA7
:1045D0000CD02269324B9B6903F070039A4205D2DA
:1045E0002F498B6923F070031A438A61236813F003
:1045F000080F0CD062692A4BDB6903F070039A4202
:1046000005D22749CB6923F070031A43CA61236896
:1046100013F0100F0CD0A269214BDB6903F4E063A7
:104620009A4205D21E49CB6923F4E0631A43CA615A
:10463000236813F0200F0CD0E269194B1B6A03F0BA
:1046400070039A4205D216490B6A23F070031A438D
:104650000A62FFF7EBFD12498B69C3F30323114A8A
:10466000D35C03F01F03D8408B6903F00F03D35CC6
:1046700003F01F0320FA03F30B4A13600B4B18607F
:104680000B4B1868FEF79AFD70BD012070470120A2
:10469000FAE70120F8E70120F6E700BF002000520A
:1046A00000440258DCC900084806002444060024DF
:1046B0005006002408B5FFF7B9FD0B4A9369C3F310
:1046C00003230A49CB5C03F01F0320FA03F392692A
:1046D00002F00F02885C00F01F0023FA00F0044A89
:1046E0001060044A136008BD00440258DCC9000889
:1046F000480600244406002408B5FFF7DBFF054BFD
:10470000DB69C3F30213044AD35C03F01F03D840F0
:1047100008BD00BF00440258DCC9000808B5FFF717
:10472000C9FF054BDB69C3F30223044AD35C03F0E2
:104730001F03D84008BD00BF00440258DCC9000870
:10474000404B9B6A03F00303032B79D070B50546F9
:104750000E463C4A136823F080631360FEF790FD19
:104760000446384B1B6813F0006F06D0FEF788FD37
:10477000031B022BF5D9032070BD324B9A6A22F439
:104780007C32296842EA01329A626A68013AC2F3CD
:104790000802A9680139490289B20A43E968013966
:1047A000090401F4FE010A4329690139090601F0EF
:1047B000FE410A439A63DA6A22F0C00269690A4339
:1047C000DA62DA6A22F02002A9690A43DA62DA6A56
:1047D00022F01002DA62D96B1B4A0A40E96942EA08
:1047E000C102DA63DA6A42F01002DA62C6B91A4626
:1047F000DB6A43F40023D362124A136843F08063F8
:104800001360FEF73DFD04460E4B1B6813F0006F6E
:1048100014D1FEF735FD001B0228F5D90320ABE7C4
:10482000012E05D0074AD36A43F40013D362E3E7AD
:10483000044AD36A43F48013D362DDE700209BE788
:1048400001207047004402580700FFFF404B9B6A5D
:1048500003F00303032B79D070B505460E463C4A9E
:10486000136823F080531360FEF70AFD0446384BAB
:104870001B6813F0005F06D0FEF702FD031B022B3E
:10488000F5D9032070BD324B9A6A22F07C722968F8
:1048900042EA01529A626A68013AC2F30802A968C0
:1048A0000139490289B20A43E9680139090401F46E
:1048B000FE010A4329690139090601F0FE410A4354
:1048C0001A64DA6A22F4406269690A43DA62DA6ACF
:1048D00022F40072A9690A43DA62DA6A22F4807269
:1048E000DA62596C1B4A0A40E96942EAC1025A6419
:1048F000DA6A42F48072DA62C6B91A46DB6A43F4B5
:104900008003D362124A136843F080531360FEF7AA
:10491000B7FC04460E4B1B6813F0005F14D1FEF782
:10492000AFFC001B0228F5D90320ABE7012E05D010
:10493000074AD36A43F08073D362E3E7044AD36A39
:1049400043F40003D362DDE700209BE701207047BA
:10495000004402580700FFFFF8B50446016801F063
:1049600000620023134330D0836EB3F5001F26D0BE
:104970000ED8EBB1B3F5801F07D102210830FFF745
:10498000DFFE054645B12E4621E0012635461EE0F4
:10499000B3F5401F09D100259F4A136D23F440133E
:1049A000A16E0B431365002611E0012635460EE08B
:1049B000994AD36A43F40033D3620025ECE702211D
:1049C0002830FFF743FF0546DCE70026354621681F
:1049D00001F480720023134314D0A36D042B34D848
:1049E000DFE803F003252C0808008B4AD36A43F460
:1049F0000033D36265BB884A136D23F00703A16DB2
:104A00000B431365216801F400720023134331D076
:104A1000E36D802B4FD020D8002B46D0402B19D1EE
:104A2000002104F10800FFF78BFE05461AE0002183
:104A300004F10800FFF784FE0546DBE7002104F1DE
:104A40002800FFF703FF0546D4E701263546D9E7DE
:104A50002E46D7E7012635460CE0C02B02D0B3F531
:104A6000807F1FD175BB6C4A136D23F4E073E16D39
:104A70000B431365216801F480620023134335D092
:104A8000D4F8A830B3F5800F51D020D8002B48D0EF
:104A9000B3F5001F18D1002104F10800FFF750FE04
:104AA00005461AE001263546E4E75B4AD36A43F43B
:104AB0000033D362D6E7002104F12800FFF7C6FED9
:104AC0000546CFE72E46D5E7012635460EE0B3F57D
:104AD000C00F02D0B3F5000F20D17DBB4E4A936DBD
:104AE00023F46003D4F8A8100B439365216801F404
:104AF00000620023134336D0D4F8AC30B3F1007F0A
:104B000056D020D8002B4DD0B3F1807F18D1002192
:104B100004F10800FFF714FE05461AE001263546A9
:104B2000E4E73D4AD36A43F40033D362D5E700217A
:104B300004F12800FFF78AFE0546CEE72E46D5E7AA
:104B4000012635460FE0B3F1407F02D0B3F1806F0C
:104B500025D1002D33D1304A936D23F0E063D4F892
:104B6000AC100B439365216801F0007200231343DE
:104B70002ED0E36C202B42D026D833B1102B20D17D
:104B8000254AD36A43F40033D362002D3ED1224A32
:104B9000D36C23F03003E16C0B43D36418E001269F
:104BA0003546E0E71C4AD36A43F40033D362D0E7CA
:104BB000002104F12800FFF749FE0546C9E72E460B
:104BC000D1E70126354603E0302BDED001263546FD
:104BD000216801F48052002313432ED0236EB3F5D5
:104BE000005F52D01AD8002B49D0B3F5805F0FD1A7
:104BF000002104F10800FFF7A3FD054614E002219F
:104C000004F10800FFF79CFD0546BEE72E46DFE7EE
:104C10000126354611E000BF00440258B3F5405F5D
:104C200002D0B3F5804F27D1002D35D17D4A136DC9
:104C300023F4E043216E0B431365216801F4005215
:104C40000023134338D0636EB3F5003F55D028D806
:104C500043B1B3F5803F21D1012104F10800FFF7F2
:104C60006FFD0546002D4FD16E4A136D23F4E023EE
:104C7000616E0B4313651FE001263546DDE7694A87
:104C8000D36A43F40033D362CEE7002104F1280055
:104C9000FFF7DCFD0546C7E72E46CEE70126354681
:104CA0000AE0B3F5802FDDD0B3F5A02FDAD0B3F54D
:104CB000403FD7D001263546216801F480420023C9
:104CC000134331D0D4F8B030B3F1005F49D020D8CD
:104CD00043B1B3F1805F19D1012104F10800FFF75E
:104CE0002FFD0546002D43D14E4A936D23F0E0433E
:104CF000D4F8B0100B43936516E0012104F12800AD
:104D0000FFF7A4FD0546ADE72E46D5E7012635465B
:104D10000AE0B3F1804FE5D0B3F1A04FE2D0B3F198
:104D2000405FDFD001263546216801F400420023B0
:104D3000134309D0236FB3F1805F1BD0B3F1005F41
:104D400026D0E3B101263546216801F080720023A8
:104D500013433FD0A36C032B38D8DFE803F027229E
:104D60003027012104F12800FFF770FD0546B9E75F
:104D70002E46D9E72B4AD36A43F40033D36275B980
:104D8000284A136D23F04053216F0B431365DBE773
:104D9000012104F10800FFF7D3FC0546EFE72E469A
:104DA000D2E7204AD36A43F40033D3628DB91D4A57
:104DB000D36C23F00303A16C0B43D3640AE00221FC
:104DC00004F10800FFF7BCFC0546EFE70126354675
:104DD00000E02E46216801F480020023134323D112
:104DE000216801F001020023134300F09980E36F72
:104DF000282B00F29380DFE803F08191919191914B
:104E000091917B919191919191918A9191919191AF
:104E100091918191919191919191819191919191A2
:104E20009191810000440258AC4A136843F48073A6
:104E30001360FEF725FA0746A84B1B6813F4807F22
:104E400005D1FEF71DFAC01B6428F5D90325002DF6
:104E50004AD1A34B1B6FD4F8B420534013F4407FC6
:104E60000CD09F4B1A6F22F44072196F41F48031BD
:104E70001967196F21F4803119671A67D4F8B430B3
:104E8000B3F5807F15D08DBBD4F8B43003F44072F5
:104E9000B2F5407F1ED0924A136923F47C5313610C
:104EA0008F490B6FD4F8B420C2F30B0213430B6786
:104EB00096E7FEF7E5F90746894B1B6F13F0020FE3
:104EC000E1D1FEF7DDF9C01B41F288339842F3D9F6
:104ED0000325D8E78248026922F47C52814901EA1D
:104EE000131313430361DBE72E4679E72E4677E77A
:104EF000012104F10800FFF723FC0546F5B9784AC3
:104F0000536D23F03803E16F0B43536508E0012133
:104F100004F12800FFF79AFC0546EFE70126354625
:104F2000216801F002020023134323D0A36F052B55
:104F30001CD8DFE803F00B05140B0B0B2E46EFE734
:104F4000012104F10800FFF7FBFB05468DB9644A17
:104F5000536D23F00703A16F0B4353650AE0012152
:104F600004F12800FFF772FC0546EFE701263546FD
:104F700000E02E46216801F004020023134323D0F1
:104F8000D4F89430052B1BD8DFE803F0090313098C
:104F90000909012104F10800FFF7D2FB054695B984
:104FA0004F4A936D23F00703D4F894100B43936595
:104FB0000AE0012104F12800FFF748FC0546EEE76E
:104FC0000126354600E02E46216801F0200200232C
:104FD000134328D0D4F89030B3F1005F44D017D8F1
:104FE00043B1B3F1805F10D1002104F10800FFF755
:104FF000A7FB0546002D3ED1394A536D23F0E0430F
:10500000D4F890100B4353650DE0012635460AE0B5
:10501000B3F1804FEED0B3F1A04FEBD0B3F1405FCE
:10502000E8D001263546216801F0400200231343F1
:1050300031D0D4F89C30B3F5006F55D020D843B1AF
:10504000B3F5806F19D1002104F10800FFF778FB58
:105050000546002D4FD1224A936D23F4E053D4F836
:105060009C100B43936516E0022104F12800FFF722
:10507000EDFB0546BEE72E46D5E7012635460AE09C
:10508000B3F5805FE5D0B3F5A05FE2D0B3F5406F34
:10509000DFD001263546216801F08002002313434A
:1050A00039D0D4F8A030B3F5804F00F0B98027D8BC
:1050B00043B1B3F5005F20D1002104F10800FFF7F0
:1050C0003FFB0546002D40F0B280054A936D23F466
:1050D0006043D4F8A0100B4393651CE000480258CD
:1050E00000440258CFFFFF00022104F12800FFF71F
:1050F000ADFB0546ADE72E46CDE7012635460AE075
:10510000B3F5004FDED0B3F5204FDBD0B3F5C04F81
:10511000D8D001263546216801F008020023134348
:105120000DD0D4F88430B3F5805F00F08280B44AAB
:10513000536D23F44053D4F884100B435365216816
:1051400001F01002002313430CD0D4F89830B3F5CB
:10515000807F78D0AA4A936D23F44073D4F89810D6
:105160000B439365216801F40022002313430BD005
:10517000D4F8A430B3F5803F7FD0B3F5003F72D0B0
:10518000002B6AD001263546216801F480220023D5
:1051900013430DD0D4F88830B3F5001F00F085809C
:1051A000B3F5401F77D0B3F5801F6FD00126354689
:1051B000216801F480320023134308D0236D002BB3
:1051C0007CD0B3F5803F00F087800126354621680A
:1051D00001F000520023134340F08780216801F45E
:1051E00000320023134300F08D80D4F88030B3F5F3
:1051F000807F00F0078140F28280B3F5007F03D00A
:10520000B3F5407F40F0F980002D40F001817C4AE9
:10521000536D23F44073D4F880100B43536571E051
:10522000022104F12800FFF711FB05464AE72E464C
:1052300071E7022104F12800FFF708FB00283FF482
:1052400076AF012673E7022104F12800FFF7FEFA8A
:1052500000283FF47FAF01267CE7002104F108001D
:10526000FFF76EFA05467DB9654A936D23F4403326
:10527000D4F8A4100B43936586E7022104F12800BB
:10528000FFF7E4FA0546EEE72E467DE75C4AD36A6F
:1052900043F40033D3627DB9594A536D23F440136C
:1052A000D4F888100B43536582E7012104F12800EC
:1052B000FFF7CCFA0546EEE72E4679E7504AD36A67
:1052C00043F40033D36275B94D4AD36C23F4803371
:1052D000216D0B43D3647AE7022104F10800FFF744
:1052E0002FFA0546EFE72E4671E7022104F1280068
:1052F000FFF7ACFA00283FF471AF01266EE7002BF0
:1053000082D00126216801F480120023134306D0C5
:105310003B4A136D23F00043616F0B431365216813
:1053200001F080520023134307D0354A136923F458
:105330008043D4F8B8100B431361216801F40012C4
:105340000023134306D02E4A136D23F08073E16EC1
:105350000B431365216801F080420023134309D0F9
:10536000274B1A6922F400421A611A69D4F8BC105A
:105370000A431A61216801F000420023134306D05A
:105380001F4AD36C23F04053616D0B43D3642168F3
:1053900001F400020023134307D0194A536D23F48C
:1053A0004003D4F88C100B4353656168002201F070
:1053B000010313432ED16168002201F0020313435D
:1053C00031D16168002201F00403134334D16168D4
:1053D000002201F00803134337D16168002201F075
:1053E000100313433AD16168002201F020031343F4
:1053F0003DD106B101263046F8BD012682E700BF47
:10540000004402581E4AD36A43F40033D362FBE6D9
:105410002E4677E7002104F10800FFF791F90028F4
:10542000C9D00646C7E7012104F10800FFF788F953
:105430000028C6D00646C4E7022104F10800FFF7A1
:105440007FF90028C3D00646C1E7002104F12800F7
:10545000FFF7FCF90028C0D00646BEE7012104F1A1
:105460002800FFF7F3F90028BDD00646BBE702216C
:1054700004F12800FFF7EAF90028BAD00646B8E799
:105480000044025808B5FFF715F9054B1B6AC3F332
:105490000213044AD35C03F01F03D84008BD00BFC9
:1054A00000440258DCC9000830B4784A916A946A12
:1054B000C4F30535D36AC3F30013D26BC2F3CC0235
:1054C00003FB02F314F47C3F00F0DA8001F00301E7
:1054D00007EE903AF8EE677A012966D0022900F0CB
:1054E000B280E1B107EE105AB8EE477A9FED686AD4
:1054F000C6EE076A654B9B6BC3F3080307EE103AD1
:10550000B8EE477A9FED636A67EE867A77EE277A80
:10551000B7EE007A77EE877A66EEA76A61E05B4BBA
:105520001B6813F0200F23D058490A68C2F3C10248
:10553000594BD34007EE103AB8EE477A06EE905A30
:10554000B8EE666AC7EE066A8B6BC3F3080307EE14
:10555000103AB8EE477A9FED4F6A67EE867A77EE9B
:10556000277AB7EE007A77EE877A66EEA76A38E098
:1055700007EE105AB8EE477A9FED486AC6EE076A02
:10558000424B9B6BC3F3080307EE103AB8EE477A21
:105590009FED406A67EE867A77EE277AB7EE007A5B
:1055A00077EE877A66EEA76A1BE007EE105AB8EE30
:1055B000477A9FED376AC6EE076A344B9B6BC3F39D
:1055C000080307EE103AB8EE477A9FED326A67EEAD
:1055D000867A77EE277AB7EE007A77EE877A66EEEC
:1055E000A76A2A4A936BC3F3462307EE103AB8EE34
:1055F000477AB7EE006A37EE067AC6EE877AFCEE97
:10560000E77AC0ED007A936BC3F3064307EE103AD6
:10561000B8EE477A37EE067AC6EE877AFCEEE77A7E
:10562000C0ED017A936BC3F3066307EE903AF8EE90
:10563000677A77EE867A86EEA77ABCEEC77A80ED37
:10564000027A30BC704707EE105AB8EE477A9FEDE9
:10565000146AC6EE076A0D4B9B6BC3F3080307EE93
:10566000103AB8EE477A9FED0B6A67EE867A77EECE
:10567000277AB7EE007A77EE877A66EEA76AB0E708
:105680000023036043608360DBE700BF00440258EF
:105690000024744A000000390090D0030024744CA8
:1056A000001B374B30B4784A916A946AC4F30555AD
:1056B000D36AC3F30023526CC2F3CC0203FB02F3A0
:1056C00014F07C7F00F0DA8001F0030107EE903ADD
:1056D000F8EE677A012966D0022900F0B280E1B1C4
:1056E00007EE105AB8EE477A9FED686AC6EE076A71
:1056F000654B1B6CC3F3080307EE103AB8EE477A0C
:105700009FED636A67EE867A77EE277AB7EE007AC6
:1057100077EE877A66EEA76A61E05B4B1B6813F051
:10572000200F23D058490A68C2F3C102594BD34015
:1057300007EE103AB8EE477A06EE905AB8EE666A6F
:10574000C7EE066A0B6CC3F3080307EE103AB8EE17
:10575000477A9FED4F6A67EE867A77EE277AB7EE43
:10576000007A77EE877A66EEA76A38E007EE105A7D
:10577000B8EE477A9FED486AC6EE076A424B1B6C4B
:10578000C3F3080307EE103AB8EE477A9FED406A7C
:1057900067EE867A77EE277AB7EE007A77EE877A29
:1057A00066EEA76A1BE007EE105AB8EE477A9FED47
:1057B000376AC6EE076A344B1B6CC3F3080307EE67
:1057C000103AB8EE477A9FED326A67EE867A77EE46
:1057D000277AB7EE007A77EE877A66EEA76A2A4ACA
:1057E000136CC3F3462307EE103AB8EE477AB7EED0
:1057F000006A37EE067AC6EE877AFCEEE77AC0EDED
:10580000007A136CC3F3064307EE103AB8EE477AFA
:1058100037EE067AC6EE877AFCEEE77AC0ED017ABB
:10582000136CC3F3066307EE903AF8EE677A77EEEF
:10583000867A86EEA77ABCEEC77A80ED027A30BC13
:10584000704707EE105AB8EE477A9FED146AC6EE1D
:10585000076A0D4B1B6CC3F3080307EE103AB8EE52
:10586000477A9FED0B6A67EE867A77EE277AB7EE76
:10587000007A77EE877A66EEA76AB0E700230360C6
:1058800043608360DBE700BF004402580024744A91
:10589000000000390090D0030024744C001B374BEB
:1058A000F0B4036A026A22F0010202624468856968
:1058B0001E4A2A400E68164323F002038D682B43CC
:1058C0001B4A1C4DA84218BF90420CBF0122002267
:1058D0000CD005F58045A84214BF00250125164FC0
:1058E000B84203D015B9154DA84205D123F00803DD
:1058F000CD682B4323F004035AB9114A904214BFD8
:10590000002201220C4DA84203D012B90B4A90424A
:1059100005D124F440724C6914438A6914434460ED
:1059200086614A6842630362F0BC70478CFFFEFFE9
:1059300000000140000401400040014000480140D7
:105940000044014070B4036A026A22F48072026269
:105950004468C5691A4A2A400E68164323F4007346
:105960008A6843EA0223174A174DA84218BF90429B
:105970000CBF0122002206D123F40063CD6843EA64
:10598000052323F480635AB9104A904214BF0022C1
:1059900001220F4DA84203D012B90E4A904207D1FE
:1059A00024F440544A6944EA02148A6944EA02141D
:1059B0004460C6614A68C263036270BC704700BF3E
:1059C0008CFFFEFF00000140000401400044014044
:1059D000004001400048014070B4036A026A22F4AA
:1059E000805202624468C569144A2A400D6842EA3E
:1059F000052223F400538D6843EA0533104E114D00
:105A0000A84218BFB0420DD005F58045A84214BF8A
:105A10000025012506F58046B04203D015B90A4D90
:105A2000A84204D124F480444D6944EA85144460BA
:105A3000C2614A680264036270BC7047FF8CFFFE5B
:105A400000000140000401400048014070B4036AB6
:105A5000026A22F4803202624268456D144C2C4086
:105A60000D682C4323F400338D6843EA0543114E3F
:105A7000114DA84218BFB0420DD005F58045A8428F
:105A800014BF0025012506F58046B04203D015B9A4
:105A90000A4DA84204D122F480324D6942EA05221F
:105AA000426044654A688265036270BC704700BF0B
:105AB0008FFFFEFF0000014000040140004801404C
:105AC00070B4036A026A22F4801202624468456D6F
:105AD000144A2A400D6842EA052223F400138D6817
:105AE00043EA0553104E114DA84218BFB0420DD0E5
:105AF00005F58045A84214BF0025012506F580461E
