:020000040800F2
:1000000000000824053F0008A1380008A3380008B4
:10001000A5380008A7380008A9380008000000002B
:10002000000000000000000000000000AB380008E5
:10003000AD38000800000000AF380008B1380008F3
:10004000553F0008553F0008553F0008553F000840
:10005000553F0008553F0008553F0008553F000830
:10006000553F0008553F0008553F0008553F000820
:10007000553F0008553F0008553F0008553F000810
:10008000553F0008553F0008553F0008553F000800
:10009000553F0008553F0008553F0008553F0008F0
:1000A000553F0008553F0008553F0008553F0008E0
:1000B000553F0008553F0008553F0008553F0008D0
:1000C000553F0008553F0008553F0008553F0008C0
:1000D000553F0008B9380008553F0008C9380008E6
:1000E000553F0008553F000800000000553F00083C
:1000F000553F0008553F0008553F0008553F000890
:10010000553F0008553F0008553F0008553F00087F
:10011000553F0008D9380008553F0008553F0008F2
:10012000553F0008553F0008553F0008553F00085F
:10013000553F0008553F0008553F0008553F00084F
:1001400000000000000000000000000000000000AF
:10015000553F0008553F0008553F0008553F00082F
:10016000553F0008553F0008553F0008553F00081F
:10017000553F0008553F0008553F0008553F00080F
:10018000553F0008553F0008553F0008553F0008FF
:10019000553F0008553F0008553F0008553F0008EF
:1001A000553F0008553F0008553F0008553F0008DF
:1001B000553F0008553F0008553F0008553F0008CF
:1001C000553F0008553F0008553F0008553F0008BF
:1001D000553F0008553F0008553F0008553F0008AF
:1001E000553F0008553F0008553F0008553F00089F
:1001F000553F0008553F0008553F0008553F00088F
:10020000553F0008553F0008553F0008553F00087E
:10021000553F0008553F0008553F0008553F00086E
:10022000553F0008553F0008553F000800000000FA
:10023000553F0008553F000800000000553F0008EA
:10024000553F0008553F0008553F0008553F00083E
:10025000553F0008553F0008553F0008553F00082E
:10026000553F0008553F0008553F0008553F00081E
:10027000553F0008553F0008553F000800000000AA
:10028000553F0008553F0008553F0008000000009A
:0802900000000000553F0008CA
:1002C00010B5054C237833B9044B13B10448AFF390
:1002D00000800123237010BD0810002400000000DE
:1002E00078D6000808B5034B1BB103490348AFF3A8
:1002F000008008BD000000000C10002478D6000823
:1003000081F0004102E000BF83F0004330B54FEAC6
:1003100041044FEA430594EA050F08BF90EA020F33
:100320001FBF54EA000C55EA020C7FEA645C7FEAC6
:10033000655C00F0E2804FEA5454D4EB5555B8BFE9
:100340006D420CDD2C4480EA020281EA030382EA5A
:10035000000083EA010180EA020281EA0303362DEC
:1003600088BF30BD11F0004F4FEA01314FF4801CBF
:100370004CEA113102D0404261EB410113F0004FD1
:100380004FEA03334CEA133302D0524263EB430388
:1003900094EA050F00F0A780A4F10104D5F1200E26
:1003A0000DDB02FA0EFC22FA05F2801841F1000181
:1003B00003FA0EF2801843FA05F359410EE0A5F155
:1003C00020050EF1200E012A03FA0EFC28BF4CF086
:1003D000020C43FA05F3C01851EBE37101F000453C
:1003E00007D54FF0000EDCF1000C7EEB00006EEB49
:1003F0000101B1F5801F1BD3B1F5001F0CD34908D3
:100400005FEA30004FEA3C0C04F101044FEA445229
:1004100012F5800F80F09A80BCF1004F08BF5FEAB0
:10042000500C50F1000041EB045141EA050130BD90
:100430005FEA4C0C404141EB0101013C28BFB1F5A2
:10044000801FE9D291F0000F04BF01460020B1FAED
:1004500081F308BF2033A3F10B03B3F120020CDAC0
:100460000C3208DD02F1140CC2F10C0201FA0CF09E
:1004700021FA02F10CE002F11402D8BFC2F1200C03
:1004800001FA02F120FA0CFCDCBF41EA0C019040B9
:10049000E41AA2BF01EB0451294330BD6FEA040402
:1004A0001F3C1CDA0C340EDC04F11404C4F12002ED
:1004B00020FA04F001FA02F340EA030021FA04F3FF
:1004C00045EA030130BDC4F10C04C4F1200220FA56
:1004D00002F001FA04F340EA0300294630BD21FA94
:1004E00004F0294630BD94F0000F83F4801306BF5A
:1004F00081F480110134013D4EE77FEA645C18BF4E
:100500007FEA655C29D094EA050F08BF90EA020FE4
:1005100005D054EA000C04BF1946104630BD91EADC
:10052000030F1EBF0021002030BD5FEA545C05D1DF
:100530004000494128BF41F0004130BD14F580041E
:100540003CBF01F5801130BD01F0004545F0FE4192
:1005500041F470014FF0000030BD7FEA645C1ABFC7
:10056000194610467FEA655C1CBF0B46024650EAFE
:10057000013406BF52EA033591EA030F41F400212A
:1005800030BD00BF90F0000F04BF0021704730B5B0
:100590004FF4806404F132044FF000054FF0000185
:1005A00050E700BF90F0000F04BF0021704730B546
:1005B0004FF4806404F1320410F0004548BF40421B
:1005C0004FF000013EE700BF42004FEAE2014FEA70
:1005D00031014FEA02701FBF12F07F4393F07F4F4B
:1005E00081F06051704732F07F4208BF704793F04E
:1005F0007F4F04BF41F40021704730B54FF4607461
:1006000001F0004521F000411CE700BF50EA010263
:1006100008BF704730B54FF000050AE050EA01020C
:1006200008BF704730B511F0004502D5404261EB7C
:1006300041014FF4806404F132045FEA915C3FF4BD
:10064000D8AE4FF003025FEADC0C18BF03325FEA5A
:10065000DC0C18BF033202EBDC02C2F1200300FA0B
:1006600003FC20FA02F001FA03FE40EA0E0021FA30
:1006700002F11444BDE600BF70B54FF0FF0C4CF41E
:10068000E06C1CEA11541DBF1CEA135594EA0C0FD0
:1006900095EA0C0F00F0DEF82C4481EA030621EA0B
:1006A0004C5123EA4C5350EA013518BF52EA033546
:1006B00041F4801143F4801338D0A0FB02CE4FF0F8
:1006C0000005E1FB02E506F00042E0FB03E54FF028
:1006D0000006E1FB03569CF0000F18BF4EF0010E20
:1006E000A4F1FF04B6F5007F64F5407404D25FEA1C
:1006F0004E0E6D4146EB060642EAC62141EA5551CF
:100700004FEAC52040EA5E504FEACE2EB4F1FD0C10
:1007100088BFBCF5E06F1ED8BEF1004F08BF5FEA8E
:10072000500E50F1000041EB045170BD06F0004640
:1007300046EA010140EA020081EA0301B4EB5C04ED
:10074000C2BFD4EB0C0541EA045170BD41F48011E5
:100750004FF0000E013C00F3AB8014F1360FDEBF0A
:10076000002001F0004170BDC4F10004203C35DAE6
:100770000C341BDC04F11404C4F1200500FA05F369
:1007800020FA04F001FA05F240EA020001F000420A
:1007900021F0004110EBD37021FA04F642EB060180
:1007A0005EEA430E08BF20EAD37070BDC4F10C04AA
:1007B000C4F1200500FA04F320FA05F001FA04F26E
:1007C00040EA020001F0004110EBD37041F100015A
:1007D0005EEA430E08BF20EAD37070BDC4F1200565
:1007E00000FA05F24EEA020E20FA04F301FA05F2CD
:1007F00043EA020321FA04F001F0004121FA04F275
:1008000020EA020000EBD3705EEA430E08BF20EA44
:10081000D37070BD94F0000F0FD101F0004640007E
:1008200041EB010111F4801F08BF013CF7D041EA00
:10083000060195F0000F18BF704703F00046520004
:1008400043EB030313F4801F08BF013DF7D043EAD5
:100850000603704794EA0C0F0CEA135518BF95EA8B
:100860000C0F0CD050EA410618BF52EA4306D1D112
:1008700081EA030101F000414FF0000070BD50EA31
:10088000410606BF1046194652EA430619D094EABB
:100890000C0F02D150EA013613D195EA0C0F05D1A5
:1008A00052EA03361CBF104619460AD181EA0301F9
:1008B00001F0004141F0FE4141F470014FF00000B1
:1008C00070BD41F0FE4141F4780170BD70B54FF04C
:1008D000FF0C4CF4E06C1CEA11541DBF1CEA1355CC
:1008E00094EA0C0F95EA0C0F00F0A7F8A4EB0504AE
:1008F00081EA030E52EA03354FEA013100F08880A5
:100900004FEA03334FF0805545EA131343EA12636D
:100910004FEA022245EA111545EA10654FEA002622
:100920000EF000419D4208BF964244F1FD0404F5DB
:10093000407402D25B084FEA3202B61A65EB030537
:100940005B084FEA32024FF480104FF4002CB6EBF4
:10095000020E75EB030E22BFB61A754640EA0C0074
:100960005B084FEA3202B6EB020E75EB030E22BFB4
:10097000B61A754640EA5C005B084FEA3202B6EBF5
:10098000020E75EB030E22BFB61A754640EA9C00B4
:100990005B084FEA3202B6EB020E75EB030E22BF84
:1009A000B61A754640EADC0055EA060E18D04FEA42
:1009B000051545EA16754FEA06164FEAC30343EAE2
:1009C00052734FEAC2025FEA1C1CC0D111F4801FAF
:1009D0000BD141EA00014FF000004FF0004CB6E7A8
:1009E00011F4801F04BF01430020B4F1FD0C88BF47
:1009F000BCF5E06F3FF6AFAEB5EB030C04BFB6EB52
:100A0000020C5FEA500C50F1000041EB045170BD44
:100A10000EF0004E4EEA113114EB5C04C2BFD4EB71
:100A20000C0541EA045170BD41F480114FF0000EF5
:100A3000013C90E645EA060E8DE60CEA135594EA71
:100A40000C0F08BF95EA0C0F3FF43BAF94EA0C0F74
:100A50000AD150EA01347FF434AF95EA0C0F7FF4E9
:100A600025AF104619462CE795EA0C0F06D152EA3D
:100A700003353FF4FDAE1046194622E750EA410621
:100A800018BF52EA43067FF4C5AE50EA41047FF432
:100A90000DAF52EA43057FF4EBAE12E74FF0FF3C97
:100AA00006E000BF4FF0010C02E000BF4FF0010C68
:100AB0004DF804CD4FEA410C7FEA6C5C4FEA430CE1
:100AC00018BF7FEA6C5C1BD001B050EA410C0CBF30
:100AD00052EA430C91EA030F02BF90EA020F002092
:100AE000704710F1000F91EA030F58BF994208BFF9
:100AF00090422CBFD8176FEAE37040F001007047B6
:100B00004FEA410C7FEA6C5C02D150EA013C07D10C
:100B10004FEA430C7FEA6C5CD6D152EA033CD3D057
:100B20005DF8040B704700BF8446104662468C4651
:100B30001946634600E000BF01B5FFF7B7FF002884
:100B400048BF10F1000F01BD4DF808EDFFF7F4FFAD
:100B50000CBF012000205DF808FB00BF4DF808ED38
:100B6000FFF7EAFF34BF012000205DF808FB00BF5B
:100B70004DF808EDFFF7E0FF94BF012000205DF87D
:100B800008FB00BF4DF808EDFFF7CEFF94BF012032
:100B900000205DF808FB00BF4DF808EDFFF7C4FF2B
:100BA00034BF012000205DF808FB00BF53B94AB9EB
:100BB000002908BF00281CBF4FF0FF314FF0FF3065
:100BC00000F06EB9ADF1080C6DE904CE00F006F846
:100BD000DDF804E0DDE9022304B070472DE9F047B9
:100BE000089D04468C46002B40F083808A421746BD
:100BF00047D9B2FA82F242B1C2F1200024FA00F0E1
:100C00009140974040EA010C94404FEA1748230C6A
:100C1000BCFBF8F61FFA87FE08FB16C143EA014346
:100C200006FB0EF1994209D9FB1806F1FF3080F05E
:100C30001981994240F21681023E3B445B1AA4B2EC
:100C4000B3FBF8F008FB103344EA034400FB0EFE4C
:100C5000A64509D93C1900F1FF3380F00581A6456E
:100C600040F2028102383C4440EA0640A4EB0E0404
:100C700000261DB1D4400023C5E900433146BDE83C
:100C8000F08702B9FFDEB2FA82F2002A50D1CB1B04
:100C90004FEA174E1FFA87F80126B3FBFEFC210C22
:100CA0000EFB1C3341EA034108FB0CF38B4207D9CE
:100CB00079180CF1FF3002D28B4200F2E9808446B1
:100CC000C91AA3B2B1FBFEF00EFB101143EA0144B6
:100CD00008FB00F8A04507D93C1900F1FF3302D208
:100CE000A04500F2D9801846A4EB080440EA0C4065
:100CF000BFE78B4209D9002D00F0B1800026C5E97D
:100D0000000130463146BDE8F087B3FA83F6002E85
:100D10004AD18B4202D3824200F2B880841A61EB3E
:100D2000030101208C46002DA8D0C5E9004CA5E7A1
:100D3000C2F1200320FA03F6974001FA02F04FEACD
:100D4000174ED9403043030CB1FBFEF61FFA87F86B
:100D50000EFB161143EA014306FB08F1994204FA1F
:100D600002F409D9FB1806F1FF3C80F08D8099420E
:100D700040F28A80023E3B445B1A81B2B3FBFEF034
:100D80000EFB103341EA034100FB08F38B4207D905
:100D9000791800F1FF3C73D28B4271D90238394483
:100DA000CB1A40EA064678E7C6F1200C03FA06F4AF
:100DB00022FA0CF31C4320FA0CF701FA06F34FEA6F
:100DC000144E21FA0CF11F433B0CB1FBFEF91FFA44
:100DD00084F80EFB191143EA014109FB08FA8A4520
:100DE00002FA06F200FA06F308D9611809F1FF3099
:100DF00048D28A4546D9A9F102092144A1EB0A014A
:100E0000BFB2B1FBFEF00EFB101147EA014700FB39
:100E100008F8B84507D9E71900F1FF312ED2B845D7
:100E20002CD90238274440EA0940A7EB0807A0FB69
:100E300002894F45C64649461AD317D05DB1B3EB78
:100E40000E0267EB010707FA0CFCF2404CEA0202C3
:100E5000F740C5E9002700263146BDE8F0872E4659
:100E600028460BE70646E9E61846FDE64345E5D287
:100E7000B8EB020E69EB04010138DFE70846D2E760
:100E800060468DE78146B9E7664675E730464AE732
:100E9000ACF1020C394413E702383C4424E700BFAC
:100EA000704700BF000000000000000000000000CC
:100EB0000000000000000000000000000000000032
:100EC00090F800F06DE9024520F007016FF0000C8A
:100ED00010F0070491F820F040F049804FF0000432
:100EE0006FF00700D1E9002391F840F000F108000D
:100EF00082FA4CF2A4FA8CF283FA4CF3A2FA8CF345
:100F00004BBBD1E9022382FA4CF200F10800A4FAAB
:100F10008CF283FA4CF3A2FA8CF3E3B9D1E90423FF
:100F200082FA4CF200F10800A4FA8CF283FA4CF336
:100F3000A2FA8CF37BB9D1E9062301F1200182FAF0
:100F40004CF200F10800A4FA8CF283FA4CF3A2FAF6
:100F50008CF3002BC6D0002A04BF04301A4612BA04
:100F6000B2FA82F2FDE8024500EBD2007047D1E907
:100F7000002304F00305C4F100004FEAC50514F096
:100F8000040F91F840F00CFA05F562EA05021CBF67
:100F900063EA050362464FF00004A9E70000000081
:100FA00001F0FF01102A2BDB10F0070F08D010F81A
:100FB000013B013A8B422DD010F0070F42B3F6D11E
:100FC000F0B441EA012141EA014122F007047FF037
:100FD00000070023F0E80256083C85EA010586EA8E
:100FE000010685FA47F5A3FA87F586FA47F6A5FACA
:100FF00087F68EB9EED1F0BC01F0FF0102F00702D6
:1010000032B110F8013B013A83EA010313B1F8D180
:101010000020704701387047002D06BF3546033861
:10102000073815F0010F07D1013015F4807F02BF9A
:10103000013015F4C03F0130F0BC0138704700BFEB
:10104000844641EA000313F003036DD1403A41D3D3
:1010500051F8043B40F8043B51F8043B40F8043B92
:1010600051F8043B40F8043B51F8043B40F8043B82
:1010700051F8043B40F8043B51F8043B40F8043B72
:1010800051F8043B40F8043B51F8043B40F8043B62
:1010900051F8043B40F8043B51F8043B40F8043B52
:1010A00051F8043B40F8043B51F8043B40F8043B42
:1010B00051F8043B40F8043B51F8043B40F8043B32
:1010C00051F8043B40F8043B51F8043B40F8043B22
:1010D000403ABDD2303211D351F8043B40F8043BC2
:1010E00051F8043B40F8043B51F8043B40F8043B02
:1010F00051F8043B40F8043B103AEDD20C3205D3D2
:1011000051F8043B40F8043B043AF9D2043208D0C9
:10111000D2071CBF11F8013B00F8013B01D30B883B
:1011200003806046704700BF082A13D38B078DD019
:1011300010F003038AD0C3F10403D21ADB071CBFEB
:1011400011F8013B00F8013B80D331F8023B20F855
:10115000023B7BE7043AD9D3013A11F8013B00F88E
:10116000013BF9D20B7803704B7843708B78837016
:10117000604670474FEA410C7FEA6C5C02D150EA4E
:10118000013C0AD14FEA430C7FEA6C5C02D152EA7F
:10119000033C02D14FF0000070474FF00100704750
:1011A0004FEA410212F5001215D211D56FF478738F
:1011B000B3EB625212D94FEAC12343F0004343EA32
:1011C000505311F0004F23FA02F018BF404270470D
:1011D0004FF00000704750EA013005D111F0004097
:1011E00008BF6FF0004070474FF00000704700BF2D
:1011F000014B1860704700BF2410002430B40C4B22
:101200005D680C4A146800FB04F49B68002104E04C
:10121000E81A02441144A14208D21A46044B9B68C2
:101220009A42FBD0F4D9D21A1144F4E730BC70478B
:1012300010E000E02410002408B54FF47A7303FB9B
:1012400000F0FFF7DBFF08BD08B580B2FFF7F4FF41
:1012500008BD00002DE9F0478CB0002407940894E5
:1012600009940A940B94524BD3F8E02042F01002F8
:10127000C3F8E020D3F8E02002F010020192019AB6
:10128000D3F8E02042F00402C3F8E020D3F8E020D5
:1012900002F004020292029AD3F8E02042F08002A7
:1012A000C3F8E020D3F8E02002F080020392039A12
:1012B000D3F8E02042F00102C3F8E020D3F8E020A8
:1012C00002F001020492049AD3F8E02042F00202F4
:1012D000C3F8E020D3F8E02002F002020592059A5C
:1012E000D3F8E02042F00802C3F8E020D3F8E03061
:1012F00003F008030693069BDFF8C0A022461821DE
:10130000504603F0CDFADFF8B890224642F2B01111
:10131000484603F0C5FADFF8AC802246E02140469B
:1013200003F0BEFA234E224641F28241304603F0DA
:10133000B7FA01221146304603F0B2FA1E4F224698
:10134000F821384603F0ACFA1823079301250895D5
:1013500009940A9407A9504603F0ACF942F2B0137D
:101360000793089509940A9407A9484603F0A2F93F
:10137000E0230793089509940A9407A9404603F0CF
:1013800099F941F283430793089509940A9407A9B0
:10139000304603F08FF9F8230793089509940A94CF
:1013A00007A9384603F086F90CB0BDE8F08700BF06
:1013B00000440258000C0258000402580010025861
:1013C00000080258000002582DE9F04F83B0804613
:1013D000A2EB000A8946A3EB010BBAF1000F0DDD69
:1013E00001220092BBF1000F14DD01230193DA45C5
:1013F0001CDD564600252F462C461BE0BAF1000F97
:1014000005D0A0EB020A4FF0FF320092EAE7CDF8D8
:1014100000A0E7E7BBF1000F05D0A1EB030B4FF0F5
:10142000FF330193E3E7CDF804B0E0E75E46E1E780
:101430000134A4B2731C9C4212DC1FFA89F11FFA1A
:1014400088F000F0C3F857445D44BE4202DABF1B87
:10145000009B9844AE42EBDAAD1B019B9944E7E751
:1014600003B0BDE8F08F000010B5064C4FF4002328
:10147000A3614FF48013A36101F0E8FB0823A3618B
:1014800010BD00BF0004025810B5054C4FF40023F6
:10149000A3611023A36101F0D9FB0823A36110BD50
:1014A0000004025810B50C46FFF7DEFFE0B2FFF76C
:1014B000EBFF10BD08B5024B187AFFF7D5FF08BD4A
:1014C0002C10002438B50446074D4FF40023AB61BF
:1014D0001023AB61000A01F0B9FBE0B201F0B6FBEA
:1014E0000823AB6138BD00BF0004025810B5064C9C
:1014F0004FF40013A3616420FFF7A6FE2023A3612D
:101500003220FFF7A1FE10BD000402582DE9F04182
:1015100007460D4616461C46DFF8488098F80A0034
:10152000FFF7A2FF0020FFF7AFFFF8B2FFF7ACFF15
:101530000020FFF7A9FFF0B2FFF7A6FF98F80C0014
:10154000FFF792FF0020FFF79FFFE8B2FFF79CFF35
:101550000020FFF799FFE0B2FFF796FFFFF7AAFF21
:10156000BDE8F0812C10002470B50546124B1A8896
:101570005B88013B013A9BB292B200210846FFF71B
:10158000C5FF0E4B4FF400229A6110229A6100268B
:1015900008E02846FFF796FF0134074B1B88A3425B
:1015A000F7D80136044B5B88B34201D90024F4E735
:1015B000024B08229A6170BD2C10002400040258CE
:1015C00008B502460B46FFF7A1FF08BD08B5FFF7B7
:1015D000F7FF024B1888FFF775FF08BD281000249D
:1015E00008B51A4B2A225A812B229A812C221A8161
:1015F00003280CD8DFE800F0020C151F134B8022E3
:101600001A80A0225A80C0213620FFF74BFF08BD68
:101610000E4BA021198080225A803620FFF742FF0E
:10162000F5E70A4B80221A80A0225A80002136203A
:10163000FFF738FFEBE7054BA0221A8080225A8083
:1016400060213620FFF72EFFE1E700BF2C100024B9
:1016500008B5FFF74BFF1120FFF706FF7820FFF7D3
:10166000F3FDB120FFF700FF0120FFF70DFF2C2055
:10167000FFF70AFF2D20FFF707FFB220FFF7F4FE68
:101680000120FFF701FF2C20FFF7FEFE2D20FFF7C2
:10169000FBFEB320FFF7E8FE0120FFF7F5FE2C204C
:1016A000FFF7F2FE2D20FFF7EFFE0120FFF7ECFE23
:1016B0002C20FFF7E9FE2D20FFF7E6FEB420FFF710
:1016C000D3FE0720FFF7E0FEC020FFF7CDFEA220EB
:1016D000FFF7DAFE0220FFF7D7FE8420FFF7D4FEE3
:1016E000C120FFF7C1FEC520FFF7CEFEC220FFF7E5
:1016F000BBFE0A20FFF7C8FE0020FFF7C5FEC3208F
:10170000FFF7B2FE8A20FFF7BFFE2A20FFF7BCFEDC
:10171000C420FFF7A9FE8A20FFF7B6FEEE20FFF7F0
:10172000B3FEC520FFF7A0FE0E20FFF7ADFE36206A
:10173000FFF79AFEC020FFF7A7FEE020FFF794FE18
:101740000F20FFF7A1FE1A20FFF79EFE0F20FFF7E4
:101750009BFE1820FFF798FE2F20FFF795FE28200C
:10176000FFF792FE2020FFF78FFE2220FFF78CFE6E
:101770001F20FFF789FE1B20FFF786FE2320FFF7BF
:1017800083FE3720FFF780FE0020FFF77DFE072055
:10179000FFF77AFE0220FFF777FE1020FFF774FEB6
:1017A000E120FFF761FE0F20FFF76EFE1B20FFF721
:1017B0006BFE0F20FFF768FE1720FFF765FE332052
:1017C000FFF762FE2C20FFF75FFE2920FFF75CFE8B
:1017D0002E20FFF759FE3020FFF756FE3020FFF78E
:1017E00053FE3920FFF750FE3F20FFF74DFE00204B
:1017F000FFF74AFE0720FFF747FE0320FFF744FEEE
:101800001020FFF741FE2A20FFF72EFE0020FFF7F1
:101810003BFE0020FFF738FE0020FFF735FE7F205B
:10182000FFF732FE2B20FFF71FFE0020FFF72CFEF4
:101830000020FFF729FE0020FFF726FE9F20FFF77C
:1018400023FEF020FFF710FE0120FFF71DFEF6201B
:10185000FFF70AFE0020FFF717FE3A20FFF704FE0D
:101860000520FFF711FE2920FFF7FEFD0120FFF7FD
:10187000B7FE044B80229A614FF6FF70FFF774FEAB
:1018800008BD00BF000C0258002856D001280AD01D
:1018900002280DD010B4032817D004282CD0002023
:1018A0005DF8044B7047264B585C303880B2704767
:1018B000234A535C303B0131505C03EB830300EB64
:1018C000430080B2303880B270471D4C605C3038C5
:1018D0004B1CE35C303B00EB800000EB800203EB31
:1018E0008303580000EB820080B20231635C18442D
:1018F00080B2303880B2D3E7114C605C30384B1C7A
:10190000E35C303BC0EB401200EB820203EB83034D
:1019100003EB8303980000EBC20080B2CB1CE35CB6
:10192000303B03EB830300EB430080B20431635C84
:10193000184480B2303880B2B2E70020704700BF50
:101940003C100024F8B500231E461F461D461846CD
:10195000194607E05A1C214CA25C303A204C2270F8
:101960000133DBB2C72B37D81C4AD25C682AF1D0CE
:10197000782A24D0792A25D0722A28D0692AEFD152
:101980005C1EE4B2401AC0B201307F1BFFB20137C7
:10199000FFB2A41BE4B20134E4B2C0B2FFF774FF9B
:1019A000104B188029463846FFF76EFF0E4B188003
:1019B00031462046FFF768FF0C4B1880F8BD591CD4
:1019C000C9B2CDE7581EC0B25D1CEDB2C8E75F1EBC
:1019D000FFB25E1CF6B2C3E70024D3E73C1000243C
:1019E0002F110024281100242A1100244A11002458
:1019F00010B5464C464B1B68236040F60C0001F0C6
:101A0000F3FC6420FFF718FC424BD3ED006AD4EDE1
:101A1000007A36EEE77A404B83ED007AF5EEC07A35
:101A2000F1EE10FA04DDF5EEC06AF1EE10FA0BD417
:101A3000394BD3ED007A394B93ED007A77EEC77AC4
:101A4000374BC3ED007A30E0DFED367A37EE277A98
:101A500083ED007AECE7B2EE047A67EEC77AFCEE2B
:101A6000E77A17EE900A01F0B7FA2A4BD3ED006A35
:101A7000264BD3ED007A36EEE77A274B83ED007ADA
:101A8000F5EEC07AF1EE10FA04DDF5EEC06AF1EE83
:101A900010FA32D4204BD3ED007A204B93ED007A2C
:101AA00077EEC77A1E4BC3ED007A1D4BD3ED007A5B
:101AB000B6EE007AF4EEC77AF1EE10FA06DCBEEE6E
:101AC000007AF4EEC77AF1EE10FA1DD5164B1B78AA
:101AD000002BCAD0144B00221A70F5EEC07AF1EE3A
:101AE00010FAB8DDB2EE047A67EE877AFCEEE77A98
:101AF00017EE900A01F008FAB7E7DFED0A7A37EE41
:101B0000277A83ED007AC5E710BD00BF4411002499
:101B10003C1100240811002430110024000000248E
:101B2000341100240000B4434811002408B5464B8A
:101B3000D3ED007A30EE270A444B83ED000A444B84
:101B400093ED007A77EE407A424BC3ED007AB5EE22
:101B5000C00AF1EE10FA04DDB5EEC07AF1EE10FA2B
:101B600004D43C4B1A683C4B1A6034E09FED3B7A3E
:101B700077EE877AC3ED007AF3E7394B00221A70CB
:101B800017EE900AFEF720FD02460B46354806F098
:101B900039FD314BD3ED007AF5EEC07AF1EE10FA53
:101BA0000ADDB2EE087A67EE877AFCEEE77A17EE86
:101BB000900A01F0A9F923E0B2EE087A67EEC77A3D
:101BC000FCEEE77A17EE900A01F006FA18E0214BD6
:101BD0001A68214B1A60204BD3ED007AB6EE007ADA
:101BE000F4EEC77AF1EE10FA06DCBEEE007AF4EEFF
:101BF000C77AF1EE10FA26D5194B1B78002BBCD111
:101C0000134BD3ED006A114BD3ED007A36EEE77A31
:101C1000104B83ED007AF5EEC07AF1EE10FAD6DDC6
:101C2000F5EEC06AF1EE10FAD1D5DFED0F7AB4EE21
:101C3000E77AF1EE10FACAD5DFED087A37EE277AA7
:101C400083ED007AC3E708BD3C1100244411002451
:101C50000811002430110024341100240000B44382
:101C60004811002490D60008000034C338B53F4D19
:101C70002B683F4C236001F077F8D5ED006AD4ED76
:101C8000007A36EEE77A3B4B83ED007AF5EEC07AC8
:101C9000F1EE10FA04DDF5EEC06AF1EE10FA04D4AC
:101CA000344B1A68344B1A6029E0DFED347A37EE92
:101CB000277A83ED007AF3E7B2EE047A67EEC77A0B
:101CC000FCEEE77A17EE900A01F086F9274BD3ED88
:101CD000006A274BD3ED007A36EEE77A254B83ED89
:101CE000007AF5EEC07AF1EE10FA04DDF5EEC06A86
:101CF000F1EE10FA2BD41F4B1A681F4B1A601E4BC3
:101D0000D3ED007AB6EE007AF4EEC77AF1EE10FA6F
:101D100006DCBEEE007AF4EEC77AF1EE10FA24D5B6
:101D2000174B1B78002BD1D0154B00221A70F5EE03
:101D3000C07AF1EE10FABFDDB2EE047A67EE877A70
:101D4000FCEEE77A17EE900A01F0DEF8BEE7DFED71
:101D50000D7AB4EEE77AF1EE10FACCD5DFED077A22
:101D600037EE277A83ED007AC5E738BD08110024E5
:101D70004411002430110024341100240000B44325
:101D800048110024000034C338B52DED028B484DB6
:101D90002B68484C236001F04FF8D5ED006AD4ED74
:101DA000007A36EEE77A444B83ED007AF5EEC07A9E
:101DB000F1EE10FA04DDF5EEC06AF1EE10FA04D48B
:101DC0003D4B1A683D4B1A6029E0DFED3D7A37EE56
:101DD000277A83ED007AF3E7F2EE047A28EE678A39
:101DE000FCEEC87A17EE900A01F0F6F8304BD3ED0E
:101DF000006A304BD3ED007A36EEE77A2E4B83ED56
:101E0000007AF5EEC07AF1EE10FA04DDF5EEC06A64
:101E1000F1EE10FA31D4284B1A68284B1A60274B80
:101E200093ED008A18EE100AFEF7CEFB04460D462D
:101E30001BA3D3E90023FEF7AFFE38B91AA3D3E9F9
:101E4000002320462946FEF789FE20B31D4B1B7850
:101E5000002BCBD01B4B00221A70B5EEC08AF1EEDE
:101E600010FAB9DDF2EE047A28EE278AFCEEC87A81
:101E700017EE900A01F048F8B8E7DFED137AB4EEF8
:101E8000E77AF1EE10FAC6D5DFED0D7A37EE277A54
:101E900083ED007ABFE7BDEC028B38BDAFF3008065
:101EA0009A9999999999B93F9A9999999999B9BF94
:101EB000081100244411002430110024341100249E
:101EC0000000B44348110024000034C310B5044698
:101ED0000268D54B9A420AD02268D44B9A4200F04D
:101EE00075832268D24B9A4200F08F8310BDD14A8D
:101EF0001078A0F13001D04B1970517830395970F9
:101F00009278303A9A70312825D0CA4B1B78322B00
:101F100000F0B780C74B1B78332B00F03181C54BE5
:101F20001B79312B00F0B881C24B1B79322B00F0AA
:101F30004A82C04B1B79332B00F0C48250231A46CF
:101F400028211846FFF740FA3C235A22194646201A
:101F5000FFF73AFAC0E764230A2214211046FFF77C
:101F600033FAB44B5B78322B47D0B24B5B78332BD0
:101F7000CBD1B24B01221A7003225A7002229A70FE
:101F80001423232219461846FFF71EFA3C23232266
:101F900014211046FFF718FA3C2323221946142077
:101FA000FFF712FA642323223C211046FFF70CFAB4
:101FB0006423232219461420FFF706FA14233C2237
:101FC00019462D20FFF700FA3C231A461421184623
:101FD000FFF7FAF93C231A4619462D20FFF7F4F9CA
:101FE00064232D223C211046FFF7EEF964233C22A6
:101FF00019462D20FFF7E8F987E7904B01221A7068
:1020000002225A7003229A7014232322194618467A
:10201000FFF7DAF93C23232214211046FFF7D4F905
:102020003C23232219461420FFF7CEF964231422FF
:102030003C211046FFF7C8F96423232219461420D7
:10204000FFF7C2F914233C2219462D20FFF7BCF9F3
:102050003C231A4614211846FFF7B6F93C231A46CA
:1020600019462D20FFF7B0F964233C221146104693
:10207000FFF7AAF964233C2219462D20FFF7A4F9A3
:1020800073E71423192219460A20FFF79DF93C2310
:10209000192214211046FFF797F93C2319221946FB
:1020A0000A20FFF791F964230A223C211046FFF72A
:1020B0008BF96423192219460A20FFF785F95D4B35
:1020C0005B78312B30D05B4B5B78332B7FF422AFC6
:1020D0005A4B02221A7003225A7001229A7064230A
:1020E0003C2214211046FFF76FF9142332221946BF
:1020F0002320FFF769F93C23322214211046FFF711
:1021000063F93C23322219462320FFF75DF964234B
:1021100032223C211046FFF757F964233222194638
:102120002320FFF751F9F5E6444B02221A700122F1
:102130005A7003229A706423232214211046FFF759
:1021400043F914233C2219462D20FFF73DF93C2387
:102150001A4614211846FFF737F93C231A46194648
:102160002D20FFF731F964233C2211461046FFF77A
:102170002BF964233C2219462D20FFF725F9A2E70D
:102180001423192219460A20FFF71EF93C231922AD
:1021900014211046FFF718F93C23192219460A208A
:1021A000FFF712F9642319223C211046FFF70CF9BE
:1021B0006423192219460A20FFF706F91D4B5B78A4
:1021C000312B3DD01B4B5B78322B7FF4A8AE1B4BE1
:1021D00003221A7002225A7001229A7064233C2250
:1021E00014211046FFF7F0F8142332221946232059
:1021F000FFF7EAF83C23322214211046FFF7E4F8F7
:102200003C23322219462320FFF7DEF864232322E1
:102210003C211046FFF7D8F86423322219462320C8
:10222000FFF7D2F87BE600BF0010014000480040F5
:1022300000500040141100242C1100240C11002423
:10224000E04B03221A7001225A7002229A70642312
:10225000232214211046FFF7B7F814233C22194615
:102260002D20FFF7B1F83C231A4614211846FFF73A
:10227000ABF83C231A4619462D20FFF7A5F8642336
:102280002D223C211046FFF79FF864233C2219467B
:102290002D20FFF799F895E764231A461421184674
:1022A000FFF792F8C84B5B79322B48D0C64B5B796D
:1022B000332B7FF439AEC34B0122DA7003221A713B
:1022C00002225A7114237D2219466E20FFF77CF8F2
:1022D0003C237D2214211046FFF776F83C237D2213
:1022E00019466E20FFF770F864237D223C211046CA
:1022F000FFF76AF864237D2219466E20FFF764F821
:102300001423962219468720FFF75EF83C23962275
:1023100014211046FFF758F83C23962219468720CF
:10232000FFF752F8642387223C211046FFF74CF850
:102330006423962219468720FFF746F8F4E5A14B5F
:102340000122DA7002221A7103225A7114237D22AB
:1023500019466E20FFF738F83C237D2214211046E1
:10236000FFF732F83C237D2219466E20FFF72CF848
:1023700064236E223C211046FFF726F864237D2259
:1023800019466E20FFF720F814239622194687205D
:10239000FFF71AF83C23962214211046FFF714F891
:1023A0003C23962219468720FFF70EF864239622D5
:1023B0003C211046FFF708F864239622194687202F
:1023C000FFF702F872E71423732219466420FEF720
:1023D000FBFF3C23732214211046FEF7F5FF3C233C
:1023E000732219466420FEF7EFFF64231A463C214E
:1023F0001846FEF7E9FF6423732219461846FEF7D4
:10240000E3FF714B5B79312B30D06F4B5B79332B12
:102410007FF48FAD6B4B0222DA7003221A71012216
:102420005A716423962214211046FEF7CDFF14231F
:102430008C2219467D20FEF7C7FF3C238C221421F5
:102440001046FEF7C1FF3C238C2219467D20FEF783
:10245000BBFF64238C223C211046FEF7B5FF6423AA
:102460008C2219467D20FEF7AFFF62E5554B022214
:10247000DA7001221A7103225A7164237D22142119
:102480001046FEF7A1FF1423962219468720FEF777
:102490009BFF3C23962214211046FEF795FF3C2318
:1024A000962219468720FEF78FFF642396223C214F
:1024B0001046FEF789FF6423962219468720FEF70F
:1024C00083FFA2E71423732219466420FEF77CFFE2
:1024D0003C23732214211046FEF776FF3C2373221F
:1024E00019466420FEF770FF642373223C211046D6
:1024F000FEF76AFF6423732219461846FEF764FF4D
:10250000314B5B79312B30D02F4B5B79322B7FF401
:1025100015AD2C4B0322DA7002221A7101225A7176
:102520006423962214211046FEF74EFF14238C22BA
:1025300019467D20FEF748FF3C238C2214211046CB
:10254000FEF742FF3C238C2219467D20FEF73CFF1C
:1025500064237D223C211046FEF736FF64238C2243
:1025600019467D20FEF730FFE8E4164B0322DA70AF
:1025700001221A7102225A7164237D22142110460D
:10258000FEF722FF1423962219468720FEF71CFF30
:102590003C23962214211046FEF716FF3C23962278
:1025A00019468720FEF710FF642387223C2110463E
:1025B000FEF70AFF6423962219468720FEF704FFE0
:1025C000A2E700BF0C110024141100241C4A138838
:1025D00001339BB21380013B1A4A12781A49CA543C
:1025E000692A07D0174900230B700122174805F00C
:1025F000D5FE76E4FFF7A6F9C8220021124805F0BF
:10260000B1FF0F4B00221A80ECE7114C2278114BDE
:102610001A7062785A70A2789A70E278DA700E4A6C
:10262000012111701868FDF7CFFF02460B460B48D9
:1026300005F0E8FF04222146094805F0AFFE55E405
:1026400012110024401100243C10002438120024F0
:1026500004110024081100244811002494D6000815
:102660006013002472B6FEE700B59FB04C22002133
:102670000BA805F077FF2022002103A805F072FFC8
:10268000022002F01DF900230093384BDA6A22F091
:102690000102DA62DB6A03F001030093344B9A69AA
:1026A00042F440429A619B6903F440430093009BCB
:1026B0002F4B9B6913F4005FFAD02E4BD3F8F42014
:1026C00042F00202C3F8F420D3F8F43003F002031E
:1026D0000193019B00230293254B9A6942F44042E7
:1026E0009A619B6903F440430293204BDA6A42F0FB
:1026F0000102DA62DB6A03F001030293029B1C4BC6
:102700009B6913F4005FFAD001220B924FF48033DF
:102710000C93022314931593169250221792189338
:1027200019931A930C231B9300231C931D930BA83E
:1027300002F0F0F8B0B93F2303930323049300237E
:102740000593082306934023079308934FF4806270
:1027500009920A93042103A802F030FD20B91FB0AA
:102760005DF804FBFFF77EFFFFF77CFF00040058D5
:10277000004802580044025838B52DED028B01F094
:1027800013FCFFF771FFFEF765FDFEF761FF01F037
:10279000CFF901F079F901F033FA01F065FA01F0AF
:1027A000FBF907229149924805F0F8FD0122914971
:1027B000914805F0F3FD04229049914805F0EEFDA3
:1027C000904C0821204604F035FA0C21204604F0F4
:1027D00031FA8D4800F0CAF94FF4F070FEF708FDA9
:1027E0008A4D01221021284602F05AF801220821C0
:1027F000284602F055F84FF47A70FEF71DFD844B21
:1028000003221A7002225A7001229A7050231A462B
:1028100028211846FEF7D8FD3C235A2219464620A7
:10282000FEF7D2FD40F6B830FEF706FD236840F60D
:1028300092121A6440F63402DA63764B1A68764BC9
:102840001A604FF47A70FFF79FFA9FED798AB0EE25
:10285000480AFFF76BF94FF4965000F0CBFEB0EE4C
:10286000480AFFF763F941F2491000F0C3FE4FF444
:10287000C870FFF7FBF9B0EE480AFFF757F9644B51
:102880001A78664B1B789A42F9D1654B1B88B43B8A
:10289000644A1380644B1B88663B644A13801DE0C6
:1028A000002A3DDB5F4BB3F90030002B3CDC5F4B73
:1028B000B3F90030002B3BDC5C4BB3F90030002B4C
:1028C0003ADB0520FEF7B8FC554B1B88DE3B554A2A
:1028D0001380554B1B88663B544A1380514BB3F908
:1028E0000020931C9BB2042BDAD8504BB3F9003074
:1028F000022BD5DC13F1020FD2DB454B1B78022BE8
:1029000024D0032B28D0012B1AD03E4B1B6840F655
:1029100092121A644FF4FA70FEF78EFC01244AE01A
:10292000012000F091FCBDE7012000F0F5FCBEE7BE
:10293000012000F021FCBFE7012000F0B5FBC0E75B
:10294000304B1B6840F296521A64DEE72D4B1B6831
:1029500040F24C421A64D8E72A4B1B6840F2EE2240
:102960001A64D2E72E4B1B88DE3B2E4A13802E4B77
:102970001B88663B2D4A13802A4B1B881D339BB254
:102980003A2BEFD8294BB3F900301D2BEADC13F1B9
:102990001D0FE7DB02291DD0032921D0012913D007
:1029A000184B1B6840F692121A644FF4FA70FEF747
:1029B00043FC0134E4B2022C3ED8154B195D174B91
:1029C0001B789942F9D1D7E70E4B1B6840F296521B
:1029D0001A64E5E70B4B1B6840F24C421A64DFE7D0
:1029E000084B1B6840F2EE221A64D9E71411002448
:1029F000A4110024401100243812002404110024E2
:102A00006013002458110024CC1200240010025836
:102A10000C110024081100243C1100242F11002463
:102A200028110024381100242A1100243A1100240E
:102A3000000000000000B4424FF4C870FFF7A4F992
:102A40001FED058AB0EE480AFFF770F84FF42060DA
:102A500000F0D0FDB0EE480AFFF768F840F60C0031
:102A600000F0C2FC5FED0D8AB0EE680AFFF75EF879
:102A70003C4D2B683C4C236041F2F22000F0BAFD43
:102A8000B0EE480AFFF752F84FF44870FFF7EEF83F
:102A9000B0EE480AFFF74AF800F0F4F84FF470700F
:102AA00000F0A8FDB0EE480AFFF740F800F010F97A
:102AB0004FF4707000F09EFDB0EE480AFFF736F854
:102AC00000F02CF94FF44870FFF75EF940F6D8603B
:102AD00000F090FDFEF78CFFB0EE680AFFF726F8D5
:102AE0002B68236041F2040000F084FDB0EE480A38
:102AF000FFF71CF84FF4BE70FFF7B8F8B0EE480AC5
:102B0000FFF714F800F0BEF84FF4707000F072FD9B
:102B1000B0EE480AFFF70AF800F0DAF84FF47070E8
:102B200000F068FDB0EE480AFFF700F800F0F6F894
:102B30004FF4BE70FFF728F941F27C5000F05AFDC7
:102B4000FEF756FFB0EE680AFEF7F0FF2B68236031
:102B500042F6F82000F04EFDB0EE480AFEF7E6FF20
:102B6000FEE700BF081100243C11002408B5054B06
:102B70001860054B1868002302221946806805F08A
:102B800055FD08BD4C11002458060024022801D828
:102B90000120704708B505F0BBFC09230360002045
:102BA00008BD000010B5013801280AD814464FF0BE
:102BB000FF3392B20748006805F0C2F940B92046D9
:102BC00010BD05F0A5FC092303604FF0FF30F7E7C7
:102BD0000520F5E74C110024022801D80020704799
:102BE00008B505F095FC092303604FF0FF3008BDE0
:102BF00008B505F08DFC092303604FF0FF3008BDD8
:102C000008B548B94FF0FF3301220848006805F0C5
:102C100001FA40B9012008BD05F07AFC09230360E0
:102C20004FF0FF30F7E70520F5E700BF4C11002417
:102C300008B5022804D84FF400534B60002008BDAB
:102C400005F066FC09230360F8E7000008230CE0A8
:102C50000B4A802191610A4A4FF480019161402121
:102C600091614000C0B2013BDBB23BB110F0800F7C
:102C7000EED1034A4FF400019161ECE7704700BFC9
:102C80000004025838B5114C236840F296521A6479
:102C90004FF4AF70FEF7D0FA236840F63405DD63D9
:102CA0004FF4FA70FEF7C8FA23684FF4C862DA638B
:102CB00040F692121A644FF4FA70FEF7BDFA2368D8
:102CC000DD633220FEF7B8FA38BD00BF581100248A
:102CD00038B5114C236840F24C421A644FF4167018
:102CE000FEF7AAFA236840F63405DD634FF4FA7064
:102CF000FEF7A2FA23684FF4C862DA6340F6921234
:102D00001A644FF4FA70FEF797FA2368DD633220F5
:102D1000FEF792FA38BD00BF5811002438B5114CA7
:102D2000236840F2EE221A644FF47A70FEF784FAB8
:102D3000236840F63405DD634FF4FA70FEF77CFA41
:102D400023684FF4C862DA6340F692121A644FF4B3
:102D5000FA70FEF771FA2368DD633220FEF76CFA31
:102D600038BD00BF58110024F8B507462D4D01228B
:102D70001021284601F094FD2B4C0022082120460A
:102D800001F08EFD00222021284601F089FD01225C
:102D90001021204601F084FD244B00221A60234BB1
:102DA0001B68BB423DD21F4D4FF40051284601F035
:102DB0007DFD1F4C01224021204601F071FD0122C2
:102DC0008021204601F06CFD01228021284601F07F
:102DD00067FD184E01224FF48051304601F060FD2E
:102DE0009620FEF70BFA00224021204601F058FD04
:102DF00000228021204601F053FD00228021284638
:102E000001F04EFD00224FF48051304601F048FDA4
:102E10004FF47A70FEF7F2F9044A13680133136035
:102E2000BDE7F8BD000802580010025850110024F8
:102E300000000258000C0258F8B507462D4D00223C
:102E40001021284601F02CFD2B4C012208212046A0
:102E500001F026FD01222021284601F021FD00225B
:102E60001021204601F01CFD244B00221A60234B48
:102E70001B68BB423DD21F4D4FF40051284601F064
:102E800015FD1F4C01224021204601F009FD0122C1
:102E90008021204601F004FD01228021284601F016
:102EA000FFFC184E01224FF48051304601F0F8FC2F
:102EB0009620FEF7A3F900224021204601F0F0FC05
:102EC00000228021204601F0EBFC002280212846D0
:102ED00001F0E6FC00224FF48051304601F0E0FCA6
:102EE00040F2DC50FEF78AF9044A1368013313609C
:102EF000BDE7F8BD00080258001002585011002428
:102F000000000258000C0258F8B507462E4C01226A
:102F10001021204601F0C4FC01222021204601F0AE
:102F2000BFFC04F5006401221021204601F0B8FC2A
:102F300001220821204601F0B3FC244B00221A6034
:102F4000224B1B68BB423DD21F4D4FF40051284617
:102F500001F0ACFC1E4C01224021204601F0A0FCF7
:102F600001228021204601F09BFC0122802128467D
:102F700001F096FC174E01224FF48051304601F0CB
:102F80008FFC9620FEF73AF900224021204601F0FE
:102F900087FC00228021204601F082FC0022802153
:102FA000284601F07DFC00224FF48051304601F0AC
:102FB00077FC4FF4FA60FEF721F9044A13680133F5
:102FC0001360BDE7F8BD00BF00080258501100248F
:102FD00000000258000C0258F8B507462E4C00229B
:102FE0001021204601F05CFC00222021204601F047
:102FF00057FC04F5006400221021204601F050FC2B
:1030000000220821204601F04BFC244B00221A60CC
:10301000224B1B68BB423DD21F4D4FF40051284646
:1030200001F044FC1E4C01224021204601F038FCF6
:1030300001228021204601F033FC01228021284614
:1030400001F02EFC174E01224FF48051304601F062
:1030500027FC9620FEF7D2F800224021204601F0FE
:103060001FFC00228021204601F01AFC0022802152
:10307000284601F015FC00224FF48051304601F043
:103080000FFC4FF4FA60FEF7B9F8044A13680133F5
:103090001360BDE7F8BD00BF0008025850110024BE
:1030A00000000258000C0258F8B507462E4C0122C9
:1030B0001021204601F0F4FB01222021204601F0DE
:1030C000EFFB04F5006400221021204601F0E8FB2C
:1030D00000220821204601F0E3FB244B00221A6065
:1030E000224B1B68BB423DD21F4D4FF40051284676
:1030F00001F0DCFB1E4C01224021204601F0D0FBF8
:1031000001228021204601F0CBFB012280212846AC
:1031100001F0C6FB174E01224FF48051304601F0FA
:10312000BFFB9620FEF76AF800224021204601F0FE
:10313000B7FB00228021204601F0B2FB0022802153
:10314000284601F0ADFB00224FF48051304601F0DB
:10315000A7FB4FF4FA60FEF751F8044A13680133F5
:103160001360BDE7F8BD00BF0008025850110024ED
:1031700000000258000C0258F8B507462E4C0022F9
:103180001021204601F08CFB00222021204601F076
:1031900087FB04F5006401221021204601F080FB2A
:1031A00001220821204601F07BFB244B00221A60FB
:1031B000224B1B68BB423DD21F4D4FF400512846A5
:1031C00001F074FB1E4C01224021204601F068FBF7
:1031D00001228021204601F063FB01228021284644
:1031E00001F05EFB174E01224FF48051304601F092
:1031F00057FB9620FEF702F800224021204601F0FE
:103200004FFB00228021204601F04AFB0022802152
:10321000284601F045FB00224FF48051304601F072
:103220003FFB4FF4FA60FDF7E9FF044A13680133EE
:103230001360BDE7F8BD00BF00080258501100241C
:1032400000000258000C0258F8B507462D4D002228
:103250001021284601F024FB2B4C01220821204696
:1032600001F01EFB01222021284601F019FB00225B
:103270001021204601F014FB244B00221A60234B3E
:103280001B68BB423DD21F4D4FF40051284601F050
:103290000DFB1F4C01224021204601F001FB0122C1
:1032A0008021204601F0FCFA01228021284601F00D
:1032B000F7FA184E01224FF48051304601F0F0FA2F
:1032C0009620FDF79BFF00224021204601F0E8FAFE
:1032D00000228021204601F0E3FA002280212846C6
:1032E00001F0DEFA00224FF48051304601F0D8FAA6
:1032F0004FF4FA60FDF782FF044A1368013313604C
:10330000BDE7F8BD00080258001002585011002413
:1033100000000258000C0258F8B507462D4D012256
:103320001021284601F0BCFA2B4C0022082120462F
:1033300001F0B6FA00222021284601F0B1FA01225C
:103340001021204601F0ACFA244B00221A60234BD6
:103350001B68BB423DD21F4D4FF40051284601F07F
:10336000A5FA1F4C01224021204601F099FA0122C2
:103370008021204601F094FA01228021284601F0A4
:103380008FFA184E01224FF48051304601F088FA2E
:103390009620FDF733FF00224021204601F080FAFD
:1033A00000228021204601F07BFA0022802128465D
:1033B00001F076FA00224FF48051304601F070FAA5
:1033C0004FF4FA60FDF71AFF044A136801331360E3
:1033D000BDE7F8BD00080258001002585011002443
:1033E00000000258000C02582DE9F04106467B4CC3
:1033F00000221021204601F053FA0022202120460D
:1034000001F04EFA04F5006400221021204601F07C
:1034100047FA00220821204601F042FA704B0022B0
:103420001A606F4B1A686F4B1B689A423FD26B4D04
:103430004FF40051284601F039FA6B4C012240212B
:10344000204601F02DFA01228021204601F028FAC1
:1034500001228021284601F023FA644F01224FF413
:103460008051384601F01CFA9620FDF7C7FE002275
:103470004021204601F014FA00228021204601F06C
:103480000FFA00228021284601F00AFA00224FF4A8
:103490008051384601F004FA514C2268544B53F8DD
:1034A0002200FDF7ABFE236801332360B9E7002754
:1034B0004C4B1B68A6EB4303BB423FD9474D4FF42F
:1034C0000051284601F0F2F9474C012240212046E4
:1034D00001F0E6F901228021204601F0E1F9012204
:1034E0008021284601F0DCF9DFF8008101224FF449
:1034F0008051404601F0D4F99620FDF77FFE00226E
:103500004021204601F0CCF900228021204601F024
:10351000C7F900228021284601F0C2F900224FF4A9
:103520008051404601F0BCF92E4B1B68013B304AEC
:1035300052F82300FDF762FE0137B9E7284B00225D
:103540001A6042E0254D4FF40051284601F0AEF9D3
:10355000254C01224021204601F0A2F901228021C0
:10356000204601F09DF901228021284601F098F9BA
:103570001E4E01224FF48051304601F091F9962001
:10358000FDF73CFE00224021204601F089F900228F
:103590008021204601F084F900228021284601F094
:1035A0007FF900224FF48051304601F079F90C4C3C
:1035B0000C4B1B6822689B1A013B0D4A52F82300F2
:1035C000FDF71CFE236801332360054B1A68054B89
:1035D0001B689A42B6D3BDE8F08100BF00080258CC
:1035E000501100244406002400000258000C025828
:1035F000040000242DE9F04105469A4C01221021D7
:10360000204601F04DF901222021204601F048F921
:1036100004F5006400221021204601F041F9002247
:103620000821204601F03CF98F4B00221A603EE051
:103630008C4E4FF40051304601F038F98B4C01228A
:103640004021204601F02CF901228021204601F082
:1036500027F901228021304601F022F9844F01220E
:103660004FF48051384601F01BF99620FDF7C6FD56
:1036700000224021204601F013F90022802120463B
:1036800001F00EF900228021304601F009F90022F4
:103690004FF48051384601F003F9734C2268754BA2
:1036A00053F82200FDF7AAFD2368013323606E4B17
:1036B0001A68714B1B689A42BAD300263EE0694FE4
:1036C0004FF40051384601F0F1F8684C01224021D6
:1036D000204601F0E5F801228021204601F0E0F8C3
:1036E00001228021384601F0DBF8DFF884810122D5
:1036F0004FF48051404601F0D3F89620FDF77EFD4F
:1037000000224021204601F0CBF8002280212046F3
:1037100001F0C6F800228021384601F0C1F80022ED
:103720004FF48051404601F0BBF8534B1B68013BFE
:10373000504A52F82300FDF761FD01364E4B1B68DD
:10374000A5EB4303643BB342B9D8474B00221A6050
:1037500042E0444D4FF40051284601F0A7F8434C95
:1037600001224021204601F09BF8012280212046C1
:1037700001F096F801228021284601F091F83C4E94
:1037800001224FF48051304601F08AF89620FDF76F
:1037900035FD00224021204601F082F800228021E0
:1037A000204601F07DF800228021284601F078F8BB
:1037B00000224FF48051304601F072F82A4C2E4B13
:1037C0001B6822689B1A013B2A4A52F82300FDF726
:1037D00015FD236801332360234B1A68264B1B68B1
:1037E0009A42B6D30026632E3ADC1E4D4FF40051A8
:1037F000284601F05BF81D4C01224021204601F0D3
:103800004FF801228021204601F04AF80122802150
:10381000284601F045F8164F01224FF480513846F2
:1038200001F03EF89620FDF7E9FC002240212046F9
:1038300001F036F800228021204601F031F8002204
:103840008021284601F02CF800224FF480513846A0
:1038500001F026F8074B1868FDF7D0FC0136C2E7E7
:10386000BDE8F08100080258501100240000025801
:10387000000C0258040000244406002482B0074BC8
:10388000D3F8F42042F00202C3F8F420D3F8F43065
:1038900003F002030193019B02B0704700440258F9
:1038A000FEE7FEE7FEE7FEE7FEE77047704770477A
:1038B00008B500F0A7FB08BD08B5024803F00AFBF5
:1038C00008BD00BFA411002408B5024803F002FBA4
:1038D00008BD00BF3812002408B5024803F0FAFA08
:1038E00008BD00BF6013002410B503460C4A0D4903
:1038F0000D48006840B10C4800680344521A9342D6
:1039000006D8094A136010BD0748084C0460F2E766
:1039100004F0FEFD0C2303604FF0FF30F3E700BF1F
:10392000000008240004000054110024581400244E
:10393000274AD2F8883043F47003C2F88830254B08
:103940001B6803F00F03062B06D8224A136823F0E6
:103950000F0343F0070313601F4B1A6842F0010284
:103960001A6000221A6119681C4A0A401A60194B31
:103970001B6813F0080F06D0164A136823F00F03D4
:1039800043F007031360144B00229A61DA611A6254
:10399000134999621349D962134919635A639963A8
:1039A000DA6319645A64196821F4802119601A666F
:1039B0000E4B1A680E4B1340B3F1005F02D20D4B51
:1039C00001221A600C4B43F2D2021A60704700BF0A
:1039D00000ED00E000200052004402587FEDF6EABE
:1039E000000202020000FF01800201010010005CE1
:1039F0000000FFFF08810051004000520368B3F14E
:103A0000804F00D0704782B0074BD3F8E82042F0D7
:103A10000102C3F8E820D3F8E83003F00103019372
:103A2000019B02B0704700BF0044025800B587B048
:103A30000023019302930393049305930368B3F166
:103A4000804F02D007B05DF804FB0D4BD3F8E020A7
:103A500042F00102C3F8E020D3F8E03003F00103A4
:103A60000093009B0E2301930223029300230393F0
:103A700004930123059301A9024800F01BFEE1E72E
:103A8000004402580000025800B58BB00023079391
:103A9000089309930093019302930393049305936E
:103AA000069322484FF080420260EF22426083601A
:103AB00044F61F62C26003618023836102F090FFBD
:103AC00028BB00230793099307A9184803F066F958
:103AD00000BB60230093002301930293049304220C
:103AE0006946124802F0F6FFB8B9082269460F4845
:103AF00002F0F0FFA0B90C2269460C4802F0EAFF80
:103B000088B90A48FFF792FF0BB05DF804FBFEF797
:103B1000A9FDD6E7FEF7A6FDDBE7FEF7A3FDE4E788
:103B2000FEF7A0FDE7E7FEF79DFDEAE75811002448
:103B300008B51748174B03604FF4E1334360002387
:103B40008360C36003610C2242618361C3610362CD
:103B50004362836204F051FB70B900210C4804F009
:103B60008DFC60B900210A4804F0ADFC50B908484A
:103B700004F065FC48B908BDFEF774FDEDE7FEF7FB
:103B800071FDEFE7FEF76EFDF1E7FEF76BFDF2E783
:103B9000CC120024004C004008B51748174B0360B6
:103BA0004FF4E133436000238360C36003610C2260
:103BB00042618361C36103624362836204F01DFB5F
:103BC00070B900210C4804F059FC60B900210A4882
:103BD00004F079FC50B9084804F031FC48B908BD3C
:103BE000FEF740FDEDE7FEF73DFDEFE7FEF73AFD9E
:103BF000F1E7FEF737FDF2E76013002400500040C4
:103C000008B51748174B03604FF416534360002361
:103C10008360C36003610C2242618361C3610362FC
:103C20004362836204F0E9FA70B900210C4804F0A1
:103C300025FC60B900210A4804F045FC50B9084849
:103C400004F0FDFB48B908BDFEF70CFDEDE7FEF7FB
:103C500009FDEFE7FEF706FDF1E7FEF703FDF2E7EA
:103C6000A41100240010014008B51748174B036049
:103C70004FF41653436000238360C36003610C223A
:103C800042618361C36103624362836204F0B5FAF7
:103C900070B900210C4804F0F1FB60B900210A481A
:103CA00004F011FC50B9084804F0C9FB48B908BD3C
:103CB000FEF7D8FCEDE7FEF7D5FCEFE7FEF7D2FC08
:103CC000F1E7FEF7CFFCF2E738120024004800408D
:103CD00010B5BEB00446002139913A913B913C9118
:103CE0003D91C02208A804F03DFC23687D4A934220
:103CF0000BD07D4A93423DD07C4A934277D07C4A98
:103D0000934200F0B1803EB010BD02220023CDE905
:103D100008230023269308A801F0ECFC38BB754B60
:103D2000D3F8E82042F40022C3F8E820D3F8E820D2
:103D300002F400220092009AD3F8E02042F001023F
:103D4000C3F8E020D3F8E03003F001030193019BB6
:103D50004FF4C053399302233A9300233B933C938F
:103D600006233D9339A9644800F0A4FCCBE7FEF795
:103D700079FCD4E702220023CDE90823002326930F
:103D800008A801F0B7FC78BB5A4BD3F8E82042F4FE
:103D90008012C3F8E820D3F8E82002F480120292DF
:103DA000029AD3F8E02042F00202C3F8E020D3F8F0
:103DB000E03003F002030393039B4FF44053399325
:103DC00002233A9300243B943C940E233D9339A95B
:103DD0004A4800F06FFC22462146352000F03CF9AD
:103DE000352000F06BF98EE7FEF73CFCCCE70122B2
:103DF0000023CDE908230023279308A801F07AFCCB
:103E000078BB3C4BD3F8F02042F01002C3F8F0200E
:103E1000D3F8F02002F010020492049AD3F8E020C4
:103E200042F00102C3F8E020D3F8E03003F00103D0
:103E30000593059B4FF4C063399302233A93002402
:103E40003B943C9407233D9339A92B4800F032FC66
:103E500022462146252000F0FFF8252000F02EF90B
:103E600051E7FEF7FFFBCCE702220023CDE9082350
:103E70000023269308A801F03DFC78BB1D4BD3F826
:103E8000E82042F48022C3F8E820D3F8E82002F4C6
:103E900080220692069AD3F8E02042F00802C3F886
:103EA000E020D3F8E03003F008030793079B4FF4BA
:103EB0004073399302233A9300243B943C940723A4
:103EC0003D9339A90E4800F0F5FB224621462720F4
:103ED00000F0C2F8272000F0F1F814E7FEF7C2FB6B
:103EE000CCE700BF004C00400050004000100140F3
:103EF00000480040004402580000025800040258E4
:103F0000000C0258DFF834D0FFF712FD0C480D49C1
:103F10000D4A002302E0D458C4500433C4188C4224
:103F2000F9D30A4A0A4C002301E013600432A2428A
:103F3000FBD304F0F3FAFEF71FFC704700000824DF
:103F400000000024081000247CD900080810002478
:103F500054140024FEE70000104B1B780BB901201D
:103F6000704710B504464FF47A70B0FBF3F30C4A77
:103F70001068B0FBF3F000F0AFF868B90F2C01D96E
:103F800001200AE0002221464FF0FF3000F064F8E3
:103F9000044B1C60002000E0012010BD50060024EE
:103FA000480600245406002410B5032000F042F80F
:103FB00001F00AF80F498B69C3F303230E4AD35C5F
:103FC00003F01F03D8408B6903F00F03D35C03F0A9
:103FD0001F0320FA03F3094A1360094B18600F20EE
:103FE000FFF7BAFF10B10124204610BD0446FFF7C9
:103FF00045FCF9E700440258A4D600084C0600240A
:1040000048060024034B1B78034A11680B441360D5
:10401000704700BF50060024F4130024014B1868B9
:10402000704700BFF4130024014B1868000C704760
:104030000010005C0649CB6823F4E0631B041B0CF2
:10404000000200F4E0600343024A1A43CA6070476A
:1040500000ED00E00000FA0530B4154BDB68C3F357
:104060000223C3F10704042C28BF04241D1D062DC0
:1040700014D9033B4FF0FF3505FA04F421EA04019B
:10408000994005FA03F322EA03031943002807DBEA
:104090000901C9B2074B195430BC70470023E9E746
:1040A00000F00F000901C9B2034B1954F4E700BF37
:1040B00000ED00E000E400E014ED00E0002807DB84
:1040C00000F01F02400901239340024A42F82030C9
:1040D000704700BF00E100E00138B0F1807F0AD2F4
:1040E000064B5860064AF02182F8231000209860A1
:1040F00007221A6070470120704700BF10E000E0FF
:1041000000ED00E070B50446FFF788FF002C00F0DA
:104110009181054694F83530DBB2022B06D080231E
:104120006365002384F83430012070BD23688C4916
:104130008C4A934218BF8B4230D0183293422DD014
:10414000183293422AD01832934227D01832934221
:1041500024D01832934221D0183293421ED002F557
:10416000567293421AD01832934217D018329342A3
:1041700014D01832934211D0183293420ED0183214
:1041800093420BD01832934208D01832934205D094
:104190001A6822F00E021A60266809E01A6822F0F6
:1041A0001E021A602268536923F080035361266857
:1041B00023686B496B4A934218BF8B4242D0183236
:1041C00093423FD0183293423CD01832934239D0B8
:1041D0001832934236D01832934233D01832934279
:1041E00030D002F5567293422CD01832934229D027
:1041F0001832934226D01832934223D01832934279
:1042000020D0183293421DD0183293421AD018325F
:10421000934217D0544A934214D01432934211D08F
:10422000143293420ED0143293420BD01432934284
:1042300008D01432934205D01432934202D0143283
:10424000934204D1226E136823F4807313602368B1
:104250004349444A934218BF8B422FD018329342AD
:104260002CD01832934229D01832934226D01832DB
:10427000934223D01832934220D0183293421DD05B
:1042800002F55672934219D01832934216D0183262
:10429000934213D01832934210D0183293420DD06B
:1042A000183293420AD01832934207D01832934200
:1042B00004D01A6822F001021A6003E01A6822F0A2
:1042C00001021A60336813F0010F0ED0FFF7A6FE4B
:1042D000431B052BF6D920236365032384F835306F
:1042E000002384F8343001201FE723681C491D4A4D
:1042F000934218BF8B4239D01832934236D01832CD
:10430000934233D01832934230D0183293422DD09A
:10431000183293422AD01832934227D002F55672AF
:10432000934223D01832934220D0183293421DD0AA
:10433000183293421AD01832934217D0183293424F
:1043400014D01832934211D0183293420ED0A16D7E
:10435000E36D03F01F02012393404B600DE000BFAB
:10436000100002402800024008540258A16DE36D7D
:1043700003F01F023F2393408B6023682E492F4A8E
:10438000934218BF8B4242D0183293423FD018322A
:1043900093423CD01832934239D01832934236D0EF
:1043A0001832934233D01832934230D002F556720D
:1043B00093422CD01832934229D01832934226D0FF
:1043C0001832934223D01832934220D018329342AD
:1043D0001DD0183293421AD01832934217D0184A7F
:1043E000934214D01432934211D0143293420ED01F
:1043F000143293420BD01432934208D014329342B9
:1044000005D01432934202D0143293420BD1636E22
:10441000A26E5A60E36E33B11A6822F480721A6099
:10442000236F626F5A60012384F83530002084F8CE
:1044300034007AE6012078E61000024028000240AD
:1044400008540258002800F0298108B5024690F867
:104450003530DBB2022B03D080234365012008BD39
:104460000368904890498B4218BF83420CBF0121DA
:10447000002166D03030834263D01830834260D050
:10448000183083425DD0183083425AD018308342AE
:1044900057D01830834254D000F55670834250D024
:1044A000183083424DD0183083424AD018308342AE
:1044B00047D01830834244D01830834241D018305E
:1044C00083423ED0183083423BD0196821F00E0160
:1044D00019601368A0F5956073498B4218BF834239
:1044E0006AD072498B4267D018318B4264D0183140
:1044F0008B4261D018318B425ED018318B425BD039
:1045000018318B4258D001F556718B4254D0183176
:104510008B4251D018318B424ED018318B424BD048
:1045200018318B4248D018318B4245D018318B421C
:1045300042D018318B423FD0196821F00101196037
:104540003EE0042082F8350081BB584A93422DD0CA
:10455000183293422AD01832934227D0183293420D
:1045600024D01832934221D0183293421ED002F543
:10457000567293421AD01832934217D0183293428F
:1045800014D01832934211D0183293420ED0183200
:1045900093420BD01832934208D01832934205D080
:1045A0001A6822F001021A60002058E71A6822F007
:1045B00001021A60002052E7196821F00101196018
:1045C0001368384838498B4218BF834242D01831AB
:1045D0008B423FD018318B423CD018318B4239D0BE
:1045E00018318B4236D018318B4233D018318B4280
:1045F00030D001F556718B422CD018318B4229D026
:1046000018318B4226D018318B4223D018318B427F
:1046100020D018318B421DD018318B421AD018315E
:104620008B4217D022498B4214D014318B4211D0C7
:1046300014318B420ED014318B420BD014318B428B
:1046400008D014318B4205D014318B4202D0143182
:104650008B4217D1116E0B6823F480730B60906D41
:10466000D36D03F01F0101238B404360536E916EA5
:104670005960D36E33B1196821F480711960136FDA
:10468000516F5960012382F83530002382F83430AD
:10469000136D2BB1104698470020E0E601207047CB
:1046A0000020DCE6100002402800024040000240EA
:1046B00008540258F0B482B000235FE086685F00BF
:1046C0000325BD4026EA0506CD68BD40354385601B
:1046D000466826EA04064D68C5F300149C4034433E
:1046E00044605AE0DD08083550F8257003F00704EF
:1046F000A6000F24B44027EA04070C69B4403C43E9
:1047000040F825405DE0092400E00024B4403C432B
:1047100002355F4E46F825404FF0B0442568D4433B
:1047200025EA02064F6817F4801F01D042EA050609
:104730004FF0B0452E606E6804EA06054F6817F426
:10474000001F01D042EA06054FF0B0467560514D9A
:104750006D6804EA05064F6817F4003F01D042EA8D
:1047600005064C4D6E602D682C404E6816F4803F57
:1047700001D042EA0504474A146001330A6832FA5C
:1047800003F400F0828001249C402240F5D04D6863
:1047900005F00305013D012D90D94C6804F0030498
:1047A000032C09D0C5685E000324B44025EA040543
:1047B0008C68B4402C43C4604C6804F00304022CA1
:1047C00090D005685E000324B44025EA04054C68D7
:1047D00004F00304B4402C4304604C6814F4403FDC
:1047E000CBD02D4CD4F8F45045F00205C4F8F45069
:1047F000D4F8F44004F002040194019C9D08AE1C1E
:10480000234C54F8267003F00304A6000F24B44090
:1048100027EA0407214CA0423FF477AF04F58064F7
:10482000A04222D004F58064A04220D004F5806428
:10483000A0421ED004F58064A0421CD004F5806420
:10484000A0421AD004F58064A04218D004F5806418
:10485000A04216D004F58064A04214D004F5806410
:10486000A0423FF450AF0A2450E701244EE702244F
:104870004CE703244AE7042448E7052446E70624D6
:1048800044E7072442E7082440E702B0F0BC704741
:1048900000040058800000580044025800000258EC
:1048A0000AB181617047090481617047436901EA77
:1048B000030221EA030141EA0241816170470000DD
:1048C000134BDB6813F0040F07D1114BDB6803F0C7
:1048D000070383421AD00120704710B50C4AD368F1
:1048E00023F007031843D060FFF798FB0446084BFA
:1048F0005B6813F4005F07D1FFF790FB001BB0F576
:104900007A7FF4D9012000E0002010BD002070471C
:1049100000480258002800F0398338B5044603687F
:1049200013F0010F25D0A74A136903F03803926AE8
:10493000102B15D0182B0FD06368B3F5803F3FD0F4
:10494000002B53D19F4B1A6822F480321A601A68E8
:1049500022F480221A6038E002F00302022AEBD12E
:10496000984B1B6813F4003F03D06368002B00F0E2
:104970000F83236813F0020F00F0A180914A13699E
:10498000926A13F038035AD0182B55D0E368002BE5
:1049900000F0DE808B490A6822F0190213430B6095
:1049A000FFF73CFB0546874B1B6813F0040F40F0F4
:1049B000AD80FFF733FB401B0228F4D90320EEE261
:1049C000804A136843F48033136063682BB3FFF7A6
:1049D00025FB05467B4B1B6813F4003FC9D1FFF74D
:1049E0001DFB401B6428F5D90320D8E2B3F5A02FA6
:1049F00009D0744B1A6822F480321A601A6822F4C3
:104A000080221A60E1E76F4B1A6842F480221A6034
:104A10001A6842F480321A60D7E7FFF7FFFA0546BA
:104A2000684B1B6813F4003FA3D0FFF7F7FA401B55
:104A30006428F5D90320B2E212F0030FA6D1614B2E
:104A40001B6813F0040F03D0E368002B00F0A28270
:104A50005C4A136823F01903E1680B431360FFF706
:104A6000DDFA0546574B1B6813F0040F06D1FFF71C
:104A7000D5FA401B0228F5D9032090E2FFF7D4FABB
:104A800041F20303984212D82269402A07D04D49C7
:104A90004B6823F47C3343EA02334B600FE0494A0E
:104AA000536823F47C3343F40033536007E0454AF2
:104AB000536823F0FE43216943EA0163536023688E
:104AC00013F0100F00F088803E4A136903F038039A
:104AD000926A082B54D0182B4ED0E369002B00F0BB
:104AE000B880384A136843F080031360FFF796FAE2
:104AF0000546344B1B6813F4807F40F08880FFF735
:104B00008DFA401B0228F4D9032048E2FFF78CFA03
:104B100041F20303984212D82269402A07D029495A
:104B20004B6823F47C3343EA02334B60C7E7254AE2
:104B3000536823F47C3343F400335360BFE7214AC6
:104B4000536823F0FE43216943EA01635360B6E7EB
:104B50001C4A136823F001031360FFF75FFA054650
:104B6000184B1B6813F0040FA9D0FFF757FA401B2E
:104B70000228F5D9032012E202F00302012AACD187
:104B8000104B1B6813F4807F03D0E369802B40F047
:104B90000382FFF749FA41F20303984214D8226ACC
:104BA000202A07D007494B6823F0F84343EA826381
:104BB0004B6011E0034A536823F0F84343F080430D
:104BC000536009E0004402589A4AD36823F07C53AA
:104BD000216A43EA0163D360236813F0080F60D0B1
:104BE0006369002B49D0934A536F43F00103536725
:104BF000FFF714FA05468F4B5B6F13F0020F50D18D
:104C0000FFF70CFA401B0228F5D90320C7E1FFF794
:104C10000BFA41F20303984212D8226A202A07D0E5
:104C200084494B6823F0F84343EA82634B60D3E73F
:104C3000804A536823F0F84343F080435360CBE746
:104C40007C4AD36823F07C53216A43EA0163D36032
:104C5000C2E7784A136823F080031360FFF7DEF998
:104C60000546744B1B6813F4807FB5D0FFF7D6F967
:104C7000401B0228F5D9032091E16E4A536F23F0BF
:104C800001035367FFF7CAF905466A4B5B6F13F0E0
:104C9000020F06D0FFF7C2F9401B0228F5D9032006
:104CA0007DE1236813F0200F29D0A3699BB1614AED
:104CB000136843F480531360FFF7B0F905465D4B6A
:104CC0001B6813F4005F1AD1FFF7A8F9401B0228F4
:104CD000F5D9032063E1574A136823F48053136026
:104CE000FFF79CF90546534B1B6813F4005F06D091
:104CF000FFF794F9401B0228F5D903204FE1236800
:104D000013F0040F21D1636A002B00F04781494A58
:104D1000126902F03802182A00F0EE80022B75D0DA
:104D2000444A136823F080731360FFF777F9044651
:104D3000404B1B6813F0007F00F0DC80FFF76EF93A
:104D4000001B0228F4D9032029E13B4A136843F4ED
:104D500080731360FFF762F90546374B1B6813F445
:104D6000807F06D1FFF75AF9401B6428F5D903204C
:104D700015E1A368012B0AD00BBB2E4B1A6F22F052
:104D800001021A671A6F22F004021A6704E0294A26
:104D9000136F43F001031367A36833B3FFF73EF9C2
:104DA0000546244B1B6F13F0020FACD1FFF736F909
:104DB000401B41F288339842F3D90320EFE0052BE2
:104DC00009D01C4B1A6F22F001021A671A6F22F0E9
:104DD00004021A67E0E7174B1A6F42F004021A67E1
:104DE0001A6F42F001021A67D6E7FFF717F9054676
:104DF000104B1B6F13F0020F85D0FFF70FF9401B0C
:104E000041F288339842F3D90320C8E0094A136875
:104E100023F080731360FFF701F90546054B1B680B
:104E200013F0007F0AD0FFF7F9F8401B0228F5D9EC
:104E30000320B4E000440258004802585F4B996ACE
:104E40005F4A0A40A16AE06A41EA00110A439A6295
:104E5000226B013AC2F30802616B0139490289B23F
:104E60000A43A16B0139090401F4FE010A43E16B15
:104E70000139090601F0FE410A431A63DA6A22F099
:104E80000102DA62596B4F4A0A40A16C42EAC10240
:104E90005A63DA6A22F00C02216C0A43DA62DA6A97
:104EA00022F00202616C0A43DA62DA6A42F480326A
:104EB000DA62DA6A42F40032DA62DA6A42F48022B2
:104EC000DA62DA6A42F00102DA621A6842F080724B
:104ED0001A60FFF7A3F80446384B1B6813F0007FF5
:104EE00006D1FFF79BF8001B0228F5D9032056E0F6
:104EF000002054E0002052E0304A916A106B012BF0
:104F00004ED001F00303A26A93424BD1C1F30511C5
:104F1000E36A994248D1C0F30802236B013B9A42ED
:104F200044D1C0F34622636B013B9A4240D1C0F3A7
:104F30000642A36B013B9A423CD1C0F30660E36B8F
:104F4000013B984238D11D4B5B6BC3F3CC03A26C81
:104F50009A4201D1002022E0184AD36A23F00103CB
:104F6000D362FFF75BF80546FFF758F8A842FBD07D
:104F7000124A516B134B0B40A16C43EAC1035363BC
:104F8000D36A43F00103D362002008E00120704798
:104F9000012004E0012002E0012000E0002038BDF3
:104FA0000120FCE70120FAE70120F8E70120F6E7FD
:104FB0000120F4E70120F2E70120F0E70044025865
:104FC0000CFCFFFF0700FFFF744B1B6903F0380365
:104FD000102B00F0DF80182B10D00BB170487047F9
:104FE0006E4B1B6813F0200F00F0D6806B4B1868D7
:104FF000C0F3C1006B4B23FA00F0704710B4674A4E
:10500000916A01F00301946AC4F30510D36A03F0B6
:105010000103526BC2F3CC0203FB02F307EE903A9A
:10502000F8EE677A14F47C7F00F09480012966D052
:10503000022900F09280E1B107EE100AF8EE476A0B
:105040009FED596A86EE267A544B1B6BC3F3080317
:1050500006EE903AF8EE666A9FED546A67EE867A3D
:1050600076EEA77AF7EE006A77EEA67A27EE277A31
:1050700061E04A4B1B6813F0200F23D047490A68B0
:10508000C2F3C102474BD34007EE103AF8EE476A2D
:1050900007EE100AB8EE476A86EE867A0B6BC3F30A
:1050A000080306EE903AF8EE666A9FED406A67EEF6
:1050B000867A76EEA77AF7EE006A77EEA67A27EE82
:1050C000277A38E007EE100AF8EE476A9FED386A53
:1050D00086EE267A314B1B6BC3F3080306EE903A3B
:1050E000F8EE666A9FED316A67EE867A76EEA77A09
:1050F000F7EE006A77EEA67A27EE277A1BE007EE36
:10510000100AF8EE476A9FED286A86EE267A234B4E
:105110001B6BC3F3080306EE903AF8EE666A9FED48
:10512000236A67EE867A76EEA77AF7EE006A77EE64
:10513000A67A27EE277A194B1B6BC3F3462301335C
:1051400007EE903AF8EE677AC7EE276AFCEEE67A49
:1051500017EE900A5DF8044B704707EE100AF8EE60
:10516000476A9FED146A86EE267A0C4B1B6BC3F3DD
:10517000080306EE903AF8EE666A9FED0C6A67EE59
:10518000867A76EEA77AF7EE006A77EEA67A27EEB1
:10519000277AD0E708487047024870470044025811
:1051A00000093D000090D0030024744A000000393B
:1051B0000024744C001B374B001BB700002800F084
:1051C000328170B50D4604469B4B1B6803F00F03FC
:1051D0008B420BD2984A136823F00F030B431360E2
:1051E000136803F00F038B4240F01F81236813F014
:1051F000040F0CD02269914B9B6903F070039A4213
:1052000005D98E498B6923F070031A438A6123689C
:1052100013F0080F0CD06269884BDB6903F0700350
:105220009A4205D98549CB6923F070031A43CA61B4
:10523000236813F0100F0CD0A269804BDB6903F4D4
:10524000E0639A4205D97D49CB6923F4E0631A43B0
:10525000CA61236813F0200F0CD0E269774B1B6AF8
:1052600003F070039A4205D974490B6A23F0700366
:105270001A430A62236813F0020F0CD0E2686F4BE6
:105280009B6903F00F039A4205D96C498B6923F09F
:105290000F031A438A61236813F0010F41D0674A54
:1052A000936923F47063A1680B4393616368022BD5
:1052B0000AD0032B27D0012B2CD0604A126812F0A1
:1052C000040F06D10120ADE0126812F4003F00F097
:1052D000AE805A490A6922F0070213430B61FEF7B8
:1052E0009DFE0646554B1B6903F038036268B3EB1D
:1052F000C20F16D0FEF792FE801B41F2883398420F
:10530000F0D903208EE04D4A126812F0007FE0D100
:10531000012087E0494A126812F4807FD9D1012028
:1053200080E0236813F0020F0CD0E268434B9B69C6
:1053300003F00F039A4205D240498B6923F00F0313
:105340001A438A613C4B1B6803F00F03AB420AD936
:10535000394A136823F00F032B431360136803F0DB
:105360000F03AB4265D1236813F0040F0CD0226900
:10537000324B9B6903F070039A4205D22F498B6927
:1053800023F070031A438A61236813F0080F0CD0CE
:1053900062692A4BDB6903F070039A4205D2274900
:1053A000CB6923F070031A43CA61236813F0100F0E
:1053B0000CD0A269214BDB6903F4E0639A4205D269
:1053C0001E49CB6923F4E0631A43CA61236813F0D2
:1053D000200F0CD0E269194B1B6A03F070039A424C
:1053E00005D216490B6A23F070031A430A62FFF7CD
:1053F000EBFD12498B69C3F30323114AD35C03F01D
:105400001F03D8408B6903F00F03D35C03F01F0325
:1054100020FA03F30B4A13600B4B18600B4B186810
:10542000FEF79AFD70BD012070470120FAE70120C8
:10543000F8E70120F6E700BF0020005200440258C0
:10544000A4D600084C060024480600245406002474
:1054500008B5FFF7B9FD0B4A9369C3F303230A4963
:10546000CB5C03F01F0320FA03F3926902F00F02F2
:10547000885C00F01F0023FA00F0044A1060044A20
:10548000136008BD00440258A4D600084C0600244E
:105490004806002408B5FFF7DBFF054BDB69C3F3C3
:1054A0000213044AD35C03F01F03D84008BD00BFB9
:1054B00000440258A4D6000808B5FFF7C9FF054B01
:1054C000DB69C3F30223044AD35C03F01F03D84013
:1054D00008BD00BF00440258A4D60008404B9B6A98
:1054E00003F00303032B79D070B505460E463C4A02
:1054F000136823F080631360FEF790FD0446384B79
:105500001B6813F0006F06D0FEF788FD031B022B0B
:10551000F5D9032070BD324B9A6A22F47C32296897
:1055200042EA01329A626A68013AC2F30802A96843
:105530000139490289B20A43E9680139090401F4D1
:10554000FE010A4329690139090601F0FE410A43B7
:105550009A63DA6A22F0C00269690A43DA62DA6A97
:1055600022F02002A9690A43DA62DA6A22F0100204
:10557000DA62D96B1B4A0A40E96942EAC102DA637E
:10558000DA6A42F01002DA62C6B91A46DB6A43F4FC
:105590000023D362124A136843F080631360FEF75E
:1055A0003DFD04460E4B1B6813F0006F14D1FEF74F
:1055B00035FD001B0228F5D90320ABE7012E05D0ED
:1055C000074AD36A43F40013D362E3E7044AD36A79
:1055D00043F48013D362DDE700209BE7012070478E
:1055E000004402580700FFFF404B9B6A03F003038F
:1055F000032B79D070B505460E463C4A136823F05C
:1056000080531360FEF70AFD0446384B1B6813F005
:10561000005F06D0FEF702FD031B022BF5D9032025
:1056200070BD324B9A6A22F07C72296842EA0152BC
:105630009A626A68013AC2F30802A968013949020C
:1056400089B20A43E9680139090401F4FE010A43F9
:1056500029690139090601F0FE410A431A64DA6A30
:1056600022F4406269690A43DA62DA6A22F400725B
:10567000A9690A43DA62DA6A22F48072DA62596C42
:105680001B4A0A40E96942EAC1025A64DA6A42F4F2
:105690008072DA62C6B91A46DB6A43F48003D362C9
:1056A000124A136843F080531360FEF7B7FC0446B8
:1056B0000E4B1B6813F0005F14D1FEF7AFFC001B0C
:1056C0000228F5D90320ABE7012E05D0074AD36A9B
:1056D00043F08073D362E3E7044AD36A43F40003E0
:1056E000D362DDE700209BE70120704700440258A9
:1056F0000700FFFFF8B50446016801F000620023CF
:10570000134330D0836EB3F5001F26D00ED8EBB113
:10571000B3F5801F07D102210830FFF7DFFE0546F1
:1057200045B12E4621E0012635461EE0B3F5401F67
:1057300009D100259F4A136D23F44013A16E0B433A
:105740001365002611E0012635460EE0994AD36A1A
:1057500043F40033D3620025ECE702212830FFF741
:1057600043FF0546DCE700263546216801F48072D8
:105770000023134314D0A36D042B34D8DFE803F0C7
:1057800003252C0808008B4AD36A43F40033D36204
:1057900065BB884A136D23F00703A16D0B431365A6
:1057A000216801F400720023134331D0E36D802B94
:1057B0004FD020D8002B46D0402B19D1002104F126
:1057C0000800FFF78BFE05461AE0002104F10800EF
:1057D000FFF784FE0546DBE7002104F12800FFF710
:1057E00003FF0546D4E701263546D9E72E46D7E71D
:1057F000012635460CE0C02B02D0B3F5807F1FD1C7
:1058000075BB6C4A136D23F4E073E16D0B431365B4
:10581000216801F480620023134335D0D4F8A83006
:10582000B3F5800F51D020D8002B48D0B3F5001F1E
:1058300018D1002104F10800FFF750FE05461AE0D8
:1058400001263546E4E75B4AD36A43F40033D3626A
:10585000D6E7002104F12800FFF7C6FE0546CFE792
:105860002E46D5E7012635460EE0B3F5C00F02D02F
:10587000B3F5000F20D17DBB4E4A936D23F4600336
:10588000D4F8A8100B439365216801F4006200234B
:10589000134336D0D4F8AC30B3F1007F56D020D8C3
:1058A000002B4DD0B3F1807F18D1002104F1080006
:1058B000FFF714FE05461AE001263546E4E73D4AA7
:1058C000D36A43F40033D362D5E7002104F1280002
:1058D000FFF78AFE0546CEE72E46D5E70126354678
:1058E0000FE0B3F1407F02D0B3F1806F25D1002DDE
:1058F00033D1304A936D23F0E063D4F8AC100B43FE
:105900009365216801F00072002313432ED0E36CED
:10591000202B42D026D833B1102B20D1254AD36A70
:1059200043F40033D362002D3ED1224AD36C23F0DE
:105930003003E16C0B43D36418E001263546E0E701
:105940001C4AD36A43F40033D362D0E7002104F148
:105950002800FFF749FE0546C9E72E46D1E7012694
:10596000354603E0302BDED001263546216801F4B0
:105970008052002313432ED0236EB3F5005F52D024
:105980001AD8002B49D0B3F5805F0FD1002104F164
:105990000800FFF7A3FD054614E0022104F108000A
:1059A000FFF79CFD0546BEE72E46DFE7012635469C
:1059B00011E000BF00440258B3F5405F02D0B3F5D8
:1059C000804F27D1002D35D17D4A136D23F4E0435C
:1059D000216E0B431365216801F400520023134329
:1059E00038D0636EB3F5003F55D028D843B1B3F536
:1059F000803F21D1012104F10800FFF76FFD05462A
:105A0000002D4FD16E4A136D23F4E023616E0B43DA
:105A100013651FE001263546DDE7694AD36A43F482
:105A20000033D362CEE7002104F12800FFF7DCFD4C
:105A30000546C7E72E46CEE7012635460AE0B3F510
:105A4000802FDDD0B3F5A02FDAD0B3F5403FD7D00B
:105A500001263546216801F480420023134331D0EA
:105A6000D4F8B030B3F1005F49D020D843B1B3F1DE
:105A7000805F19D1012104F10800FFF72FFD0546D1
:105A8000002D43D14E4A936D23F0E043D4F8B0107B
:105A90000B43936516E0012104F12800FFF7A4FDF4
:105AA0000546ADE72E46D5E7012635460AE0B3F1B7
:105AB000804FE5D0B3F1A04FE2D0B3F1405FDFD02B
:105AC00001263546216801F400420023134309D022
:105AD000236FB3F1805F1BD0B3F1005F26D0E3B139
:105AE00001263546216801F08072002313433FD020
:105AF000A36C032B38D8DFE803F0272230270121DD
